S00C00004C6162322E73726563D7
S11300004BC0000051C000004FC000004DC00000B4
S11300104BC0000049C0000047C0000045C00000BC
S113002043C0000041C000003FC000003DC00000CC
S11300303BC0000039C0000037C0000035C00000DC
S113004033C0000031C000002FC000002DC00000EC
S11300502BC0000029C0000027C0000025C00000FC
S113006023C0000021C000001FC000001DC000000C
S11300701BC0000019C0000017C0000015C000001C
S113008013C0000011C000000FC000000DC000002C
S11300900BC0000009C0000011241FBECFEFD0E246
S11300A0DEBFCDBF5ED06AC0ABCFAC01E1E8F0E00B
S11300B090819860908388EE93E090938900809378
S11300C088001092850010928400EFE6F0E09081A1
S11300D092609083B19A20E030E005C0B19BFECFDE
S11300E0B19A2F5F3F4F241735071CF4B19BF6CF0D
S11300F0F7CF08950F931F93CF93DF938C0181E083
S1130100F8018083C0E0D0E088EC90E0CEDFC3301B
S1130110D10534F4F8018081880F8F5F808318C083
S1130120CA30D1052CF4F8018081880F808310C077
S1130130CD30D10534F4F8018081869580588083D0
S113014007C0C431D10524F4F801808186958083E9
S11301502196C431D105C1F6DF91CF911F910F9142
S11301600895E1E8F0E08081816080838FEF87B9B2
S113017081E088B988E290E0BDDFFCCFF894FFCF3E
S9030000FC
