S01300004B6E6967687452696465722E73726563B6
S11300004BC0000051C000004FC000004DC00000B4
S11300104BC0000049C0000047C0000045C00000BC
S113002043C0000041C000003FC000003DC00000CC
S11300303BC0000039C0000037C0000035C00000DC
S113004033C0000031C000002FC000002DC00000EC
S11300502BC0000029C0000027C0000025C00000FC
S113006023C0000021C000001FC000001DC000000C
S11300701BC0000019C0000017C0000015C000001C
S113008013C0000011C000000FC000000DC000002C
S11300900BC0000009C0000011241FBECFEFD0E246
S11300A0DEBFCDBF72D079C0ABCFAC011816190634
S11300B05CF420E030E081E0982F9A95F1F72F5F0F
S11300C03F4F42175307C1F708950F931F93CF93E0
S11300D0DF931816190654F48C01C0E0D0E088EEC2
S11300E093E0E3DF21960C171D07C9F7DF91CF9149
S11300F01F910F9108950F931F93CF93DF938C015A
S113010081E0F8018083C0E0D0E0C430D10534F44C
S1130110F8018081880F8F5F80832BC0C830D105A0
S11301202CF4F8018081880F808323C0CB30D10563
S11301302CF4F8018081880F80831BC0CE30D10558
S113014034F4F801808186958058808312C0C231CE
S1130150D1052CF4F8018081869580830AC0C431CE
S1130160D1053CF4F801808190E00197959587953D
S113017080838FE090E0A9DF2196C431D10529F670
S1130180DF91CF911F910F9108958FEF87B981E08F
S111019088B988E290E0AFDFFCCFF894FFCF8F
S9030000FC
