:100000004BC0000066C0000064C0000062C0000079
:1000100060C000005EC000005CC000005AC000006C
:1000200058C0000056C0000054C0000052C000007C
:1000300050C000004EC000004CC000004AC000008C
:1000400048C0000046C0000044C0000042C000009C
:1000500040C000003EC000003CC000003AC00000AC
:1000600038C0000036C0000034C0000032C00000BC
:1000700030C000002EC000002CC000002AC00000CC
:1000800028C0000026C0000024C0000022C00000DC
:1000900020C000001EC0000011241FBECFEFD0E220
:1000A000DEBFCDBF11E0A0E0B1E0E0EAF1E000E0AA
:1000B0000BBF02C007900D92A230B107D9F721E023
:1000C000A2E0B1E001C01D92A430B207E1F759D01F
:1000D00065C096CFAC01181619065CF420E030E03C
:1000E00081E0982F9A95F1F72F5F3F4F4217530702
:1000F000C1F708950F931F93CF93DF931816190636
:1001000054F48C01C0E0D0E088EE93E0E3DF219668
:100110000C171D07C9F7DF91CF911F910F9108951B
:10012000FC0181E080930301809100018130A1F402
:1001300080818695808380910201811103C0808136
:100140008058808380910201873011F41092000161
:100150008F5F8093020108958081880F8083809152
:100160000201883019F480818F5F808380910201C1
:10017000813019F491E09093000181508093020145
:1001800008958FEF87B980EA8BB980E888B989E153
:1001900090E0B0DF88E290E0C3DFF9CFF894FFCFC2
:0201A00001005C
:00000001FF
