:100000000C944C000C946C000C946C000C946C00E0
:100010000C946C000C946C000C946C000C946C00B0
:100020000C946C000C946C000C946C000C946C00A0
:100030000C946C000C946C000C946C000C946C0090
:100040000C946C000C946C000C946C000C946C0080
:100050000C946C000C946C000C946C000C946C0070
:100060000C946C000C946C000C946C000C946C0060
:100070000C946C000C946C000C946C000C946C0050
:100080000C946C000C946C000C946C000C946C0040
:100090000C946C000C946C0011241FBECFEFD0E2C6
:1000A000DEBFCDBF11E0A0E0B1E0E0E2F5E000E0AE
:1000B0000BBF02C007900D92A630B107D9F71BBE47
:1000C00011E0A6E0B1E001C01D92AA30B107E1F74E
:1000D0000E94E9000C948E020C940000FC01DB01EC
:1000E000118210821D921C920895CF93DF939C0180
:1000F000DB01FA01CD91DC911197808191812097EC
:1001000019F09B838A8303C0E901998388838081E6
:1001100091818D939C93DF91CF910895DC01FB0138
:100120008D919C911197009749F091838083ED9177
:10013000FC911197828193818D939C930895FC018A
:100140000190F081E02D808191810895FC0120E0F3
:1001500080819181892B09F421E0822F0895FC018F
:100160000190F081E02D20E030E005C02F5F3F4F8F
:100170000280F381E02D3097C9F7C90108950F93EC
:100180001F93CF93DF93EC018B0107C08281938192
:1001900099838883CF010E943602E881F9813097E4
:1001A000A9F7F80111821082DF91CF911F910F9171
:1001B00008950F931F938C0184E090E00E948C01BE
:1001C000FC01D8018D939C93138212821F910F9191
:1001D0000895DF93CF9300D000D000D0CDB7DEB725
:1001E0008FEF84B91E821D821A8219821C821B82A3
:1001F000CE0105960E94D900ED81FE8183E08083C7
:1002000084E08183AB81BC81109729F01396FC9325
:10021000EE93129702C0FA83E983FC83EB83E981B2
:10022000FA81808185B9EB81FC81818185B9CE011C
:1002300005960E94D900ED81FE8185E0808386E0ED
:100240008183AB81BC81109729F01396FC93EE93C8
:10025000129702C0FA83E983FC83EB83E981FA8178
:10026000808185B9EB81FC81818185B9CE010596BC
:100270000E94D900ED81FE8187E0808388E0818340
:10028000AB81BC81109729F01396FC93EE931297E3
:1002900002C0FA83E983FC83EB83A981BA818C9144
:1002A00085B9EB81FC81918195B915B885B915B8EF
:1002B000FD0180E090E004C001960280F381E02D12
:1002C0003097D1F785B980E0AB2B09F481E085B98F
:1002D000CE010196BE016D5F7F4F0E94BF00298154
:1002E0003A81F90180E090E004C001960280F38138
:1002F000E02D3097D1F785B980E0232B09F481E018
:1003000085B980E090E026960FB6F894DEBF0FBE68
:10031000CDBFCF91DF910895CF93DF93BC018230A1
:10032000910510F462E070E0A0910801B09109011C
:10033000ED01E0E0F0E040E050E021C088819981EB
:100340008617970769F48A819B81309719F0938308
:10035000828304C09093090180930801FE0134C098
:100360006817790738F44115510519F08417950776
:1003700008F4AC01FE018A819B819C01E901209770
:10038000E9F641155105A9F1CA01861B970B04979F
:1003900008F4BA01E0E0F0E02AC08D919C91119739
:1003A00084179507F9F46417750781F412968D91F7
:1003B0009C911397309719F09383828304C0909394
:1003C000090180930801FD0132964CC0CA01861BC9
:1003D000970BFD01E80FF91F6193719302978D93BD
:1003E0009C9340C0FD01828193819C01D9011097AB
:1003F000A1F68091060190910701892B41F480912B
:1004000002019091030190930701809306014091AE
:100410000401509105014115510541F44DB75EB7F6
:100420008091000190910101481B590B2091060118
:1004300030910701CA01821B930B8617970780F042
:10044000AB014E5F5F4F8417950750F0420F531F6B
:100450005093070140930601F9016193719302C023
:10046000E0E0F0E0CF01DF91CF910895CF93DF93EB
:10047000009709F450C0EC0122971B821A82A091C8
:100480000801B0910901109709F140E050E0AC1764
:10049000BD0708F1BB83AA83FE0121913191E20FD0
:1004A000F31FAE17BF0779F48D919C911197280F18
:1004B000391F2E5F3F4F3983288312968D919C916F
:1004C00013979B838A834115510571F4D0930901D9
:1004D000C093080120C012968D919C911397AD0195
:1004E000009711F0DC01D3CFFA01D383C2832191AD
:1004F0003191E20FF31FCE17DF0769F488819981EC
:10050000280F391F2E5F3F4FFA01318320838A81E4
:100510009B8193838283DF91CF910895F894FFCFDD
:0605200020000A010000AA
:00000001FF
