:100000004BC00000DAC0000064C000006DC00000FA
:10001000E3C000005EC000005CC000005AC00000E9
:1000200058C0000056C0000054C0000052C000007C
:1000300050C000004EC000004CC000004AC000008C
:1000400048C0000046C0000044C0000042C000009C
:1000500040C000003FC000003CC000003AC00000AB
:1000600038C0000036C0000034C0000032C00000BC
:1000700030C000005FC000002CC000002AC000009B
:1000800028C0000026C0000024C0000022C00000DC
:1000900020C000001EC0000011241FBECFEFD0E220
:1000A000DEBFCDBF11E0A0E0B1E0E2E1F4E000E0AE
:1000B0000BBF02C007900D92A030B107D9F721E025
:1000C000A0E0B1E001C01D92AE30B207E1F77ED1F1
:1000D0009EC191C01F920F920FB60F9211240F90E4
:1000E0000FBE0F901F9018951F920F920FB60F9290
:1000F00011240BB60F928F93EF93FF93809105011C
:10010000882331F01092050181E08093060108C038
:1001100081E080930501EAE7F0E0808180648083DC
:10012000FF91EF918F910F900BBE0F900FBE0F902C
:100130001F9018951F920F920FB60F9211240BB6B5
:100140000F922F933F938F939F93EF93FF93809101
:1001500079002091780090E0982F8827820F911DD8
:1001600090930101809300012091000130910101E1
:100170008091090190910A012817390740F4809174
:1001800000019091010190930A01809309018091EF
:100190000501882329F0EAE7F0E08081806480830C
:1001A000FF91EF919F918F913F912F910F900BBEF7
:1001B0000F900FBE0F901F9018951F920F920FB6C1
:1001C0000F9211248F9382E0809304018F910F90FE
:1001D0000FBE0F901F9018951F920F920FB60F929F
:1001E00011248F9384E0809304018F910F900FBEB0
:1001F0000F901F9018951F920F920FB60F92112417
:100200000F900FBE0F901F901895279A84B58368A2
:1002100084BD85B5826085BD80E887BD089584E092
:100220008BB980E787BD0895F8948FE390E09093B1
:1002300001018093000190930A01809309011092BB
:10024000050110920601EA9AE9E6F0E080818F6CE0
:100250008083EAE7F0E08081806880838081886025
:100260008083ECE7F0E08081806680837894089555
:10027000AC01E1E8F0E090819860908388EE93E033
:1002800090938900809388001092850010928400DA
:10029000EFE6F0E0908192609083B19A20E030E048
:1002A00005C0B19BFECFB19A2F5F3F4F2417350792
:1002B0001CF4B19BF6CFF7CF0895EF92FF920F9306
:1002C0001F93CF93DF93CDB7DEB764970FB6F89443
:1002D000DEBF0FBECDBF082F192FA6DF96DF9FDF31
:1002E0008FEF88B9FE01319690E04FE350E08091A6
:1002F00006018823E1F398B92091090130910A01A0
:100300002193319350930A01409309011092060101
:100310009F5F9A3061F717BCE980FA80ED89FE890A
:10032000C701B70149E050E0AE2F3F2F8E179F075E
:1003300010F48A2F932FE617F70710F46A2F732F04
:100340004150510999F797012E0F3F1FEE0FFF1FE4
:10035000EE0FFF1FEE0FFF1F2E0F3F1FE02FF12F9D
:100360007183608393838283860F971F9695879509
:1003700095838483ADECBCEC3BD0969587959695A0
:100380008795969587959783868318B888EE93E02E
:100390006FDF18B888EE93E06BDF18B888EE93E053
:1003A00067DF18B888EE93E063DF18B888EE93E053
:1003B0005FDF64960FB6F894DEBF0FBECDBFDF914E
:1003C000CF911F910F91FF90EF900895CF93DF93FE
:1003D000CDB7DEB7A0970FB6F894DEBF0FBECDBF86
:1003E00011B88FEF87B98AB9CE01019666DFFFCFCA
:1003F000A29FB001B39FC001A39F700D811D112466
:10040000911DB29F700D811D1124911D0895F894C6
:02041000FFCF1C
:00000001FF
