S0150000536F7274696E6753797374656D2E73726563A4
S11300004BC00000DAC0000064C000006DC00000F6
S1130010E3C000005EC000005CC000005AC00000E5
S113002058C0000056C0000054C0000052C0000078
S113003050C000004EC000004CC000004AC0000088
S113004048C0000046C0000044C0000042C0000098
S113005040C000003FC000003CC000003AC00000A7
S113006038C0000036C0000034C0000032C00000B8
S113007030C000005FC000002CC000002AC0000097
S113008028C0000026C0000024C0000022C00000D8
S113009020C000001EC0000011241FBECFEFD0E21C
S11300A0DEBFCDBF11E0A0E0B1E0E0E1F4E000E0AC
S11300B00BBF02C007900D92A030B107D9F721E021
S11300C0A0E0B1E001C01D92AE30B207E1F77DD1EE
S11300D09DC191C01F920F920FB60F9211240F90E1
S11300E00FBE0F901F9018951F920F920FB60F928C
S11300F011240BB60F928F93EF93FF938091050118
S1130100882331F01092050181E08093060108C034
S113011081E080930501EAE7F0E0808180648083D8
S1130120FF91EF918F910F900BBE0F900FBE0F9028
S11301301F9018951F920F920FB60F9211240BB6B1
S11301400F922F933F938F939F93EF93FF938091FD
S113015079002091780090E0982F8827820F911DD4
S113016090930101809300012091000130910101DD
S11301708091090190910A012817390740F4809170
S113018000019091010190930A01809309018091EB
S11301900501882329F0EAE7F0E080818064808308
S11301A0FF91EF919F918F913F912F910F900BBEF3
S11301B00F900FBE0F901F9018951F920F920FB6BD
S11301C00F9211248F9382E0809304018F910F90FA
S11301D00FBE0F901F9018951F920F920FB60F929B
S11301E011248F9384E0809304018F910F900FBEAC
S11301F00F901F9018951F920F920FB60F92112413
S11302000F900FBE0F901F90189584E08BB980E774
S113021087BD0895F8948FE390E090930101809353
S1130220000190930A018093090110920501EA9A52
S1130230E9E6F0E080818F6C8083EAE7F0E080817A
S113024080688083808188608083ECE7F0E080812F
S11302508066808378940895AC01E1E8F0E09081B1
S11302609860908388EE93E090938900809388004F
S11302701092850010928400EFE6F0E09081926085
S11302809083B19A20E030E005C0B19BFECFB19AD3
S11302902F5F3F4F241735071CF4B19BF6CFF7CFE0
S11302A00895AF92BF92DF92EF92FF920F931F9344
S11302B0CF93DF93CDB7DEB764970FB6F894DEBF64
S11302C00FBECDBF082F192FA5DF9FDFE02EF12E23
S11302D0D12C8E010B5E1F4F65C0809106018823CF
S11302E0E1F38091090190910A0118B88091090104
S11302F090910A01819391930E171F0771F7A980BA
S1130300BA80ED89FE89B501C50149E050E0AE2F00
S11303103F2F6E177F0710F46A2F732FE817F90722
S113032010F48A2F932F4150510999F7AE0EBF1E36
S1130330EE0FFF1FEE0FFF1FEE0FFF1F9F012A0D91
S11303403B1DF7019183808373836283860F971F1C
S11303509695879595838483ADECBCEC48D09695AF
S11303608795969587959695879597838683D8B82C
S113037088EE93E071DF18B888EE93E06DDF18B86B
S113038088EE93E069DF18B888EE93E065DF18B86B
S113039088EE93E061DFF8E0EF0EF11CD39484E083
S11303A0D81619F0FE01319698CF64960FB6F894DA
S11303B0DEBF0FBECDBFDF91CF911F910F91FF9094
S11303C0EF90DF90BF90AF900895CF93DF93CDB7B8
S11303D0DEB7A0970FB6F894DEBF0FBECDBF11B83D
S11303E08FEF87B98AB9CE0101965BDFFFCFA29F59
S11303F0B001B39FC001A39F700D811D1124911DF5
S1130400B29F700D811D1124911D0895F894FFCFA2
S9030000FC
