S0150000536F7274696E6753797374656D2E73726563A4
S11300004BC00000E1C00000EEC0000038C3000097
S1130010F9C0000006C1000026C100005AC000005B
S113002058C0000056C0000054C0000052C0000078
S113003050C000004EC000004CC000004AC0000088
S113004048C0000046C0000044C0000042C0000098
S113005040C0000099C000003CC000003AC000004D
S113006038C0000036C0000034C0000032C00000B8
S113007030C000000AC100002CC000002AC00000EB
S11300808DC0000026C0000024C0000022C0000073
S113009020C000001EC0000011241FBECFEFD0E21C
S11300A0DEBFCDBF11E0A0E0B1E0EEE3FCE000E094
S11300B00BBF02C007900D92A631B107D9F721E01A
S11300C0A6E1B1E001C01D92A236B207E1F7BDD3AB
S11300D0B4C51EC188E090E08FD4FC01178216825B
S11300E0108212821182138214821582089584E090
S11300F090E082D4FC01118210821382128208954E
S1130100FC01A281B381109739F017967C936E930A
S11301101697738362830895718360837383628304
S11301200895DC01ED91FC911197309739F08681A7
S1130130978111969C938E93892B21F413961C928C
S11301401E921297CF010895CF93DF93EC0188811B
S11301509981009751F0FC012681378139832883E6
S1130160E3D4888199810097B1F71B821A82DF91C9
S1130170CF910895FC0181E090E020813181232B0F
S113018011F080E090E008951F920F920FB60F9245
S113019011240F900FBE0F901F9018951F920F926D
S11301A00FB60F9211248F9381E0809323018091E5
S11301B02401882319F084E080930C018F910F901F
S11301C00FBE0F901F9018951F920F920FB60F92AB
S11301D011248F9381E0809328018F910F900FBE9B
S11301E00F901F9018951F920F920FB60F92112423
S11301F08F9381E0809325018F910F900FBE0F9014
S11302001F9018951F920F920FB60F9211248F937F
S113021081E0809326018F910F900FBE0F901F9065
S113022018951F920F920FB60F9211248F938091FD
S11302300C01823049F481E080932C011092180162
S113024083E080930C0109C080910C01833029F470
S113025082E080932C0180930C018F910F900FBE4C
S11302600F901F9018951F920F920FB60F921124A2
S11302708F9383E080932C0181E0809324018F91FC
S11302800F900FBE0F901F9018951F920F920FB6EC
S11302900F9211240BB60F922F933F938F939F933A
S11302A0EF93FF9380913301882329F12091780003
S11302B08091790090E0982F8827820F911D909368
S11302C02E0180932D0120912D0130912E018091DA
S11302D05C0190915D012817390740F480912D014C
S11302E090912E0190935D0180935C01EAE7F0E028
S11302F0808180648083FF91EF919F918F913F91E2
S11303002F910F900BBE0F900FBE0F901F9018955A
S11303101F920F920FB60F9211240F900FBE0F90E1
S11303201F9018958AE9809369008AE080936A0097
S11303308DB38F638DBB089584B5836884BD85B503
S1130340826085BD80E887BD0895E1E9F0E08081A1
S11303508B608083E1E7F0E0808182608083C19AD2
S113036080818D7F808308959C01E1E7F0E0908196
S113037092609083109295001092940030939900AB
S113038020939800089584E085B980E687BD089598
S11303908FEF93E090932E0180932D0190935D0154
S11303A080935C011092330110922B01ECE7F0E092
S11303B0808180648083EAE7F0E0808182608083CA
S11303C0808181608083808188608083808180686F
S11303D0808308958FEF81B985E382B981E090E04D
S11303E09093300180932F0110925701109256017F
S11303F00895AC01E1E8F0E09081916090839081F0
S11304009860908388EE93E09093890080938800AD
S11304101092850010928400B19A20E030E005C06B
S1130420B19BFECFB19A2F5F3F4F241735071CF4C1
S1130430B19BF6CFF7CF08958F929F92AF92BF9260
S1130440CF92DF92EF92FF920F931F93CF93DF939C
S1130450181619060CF080C07B018C01C0E0D0E0B6
S11304600F2EFEE0CF2ED12CF02D0F2EF6E38F2E83
S1130470F02D0F2EFEE29F2EF02D0F2EFDE2AF2E5B
S1130480F02D0F2EF5E3BF2EF02D84E0E816F104D5
S113049091F48091160190911701019683709078E0
S11304A0992324F401978C6F9F6F01969093170101
S11304B08093160115C088E0E816F10489F4809150
S11304C0160190911701019783709078992324F471
S11304D001978C6F9F6F019690931701809316017B
S11304E020911601309117012130310579F01CF467
S11304F0232B41F016C02230310561F02330310541
S113050069F00FC0B2B8C60174DF0BC082B8C6016F
S113051070DF07C092B8C6016CDF03C0A2B8C60181
S113052068DFC830D1053CF486E0C816D1041CF05D
S113053081E0C81AD108C8018C1B9D0B09973CF4B3
S11305408FE0C816D1041CF48FEFC81AD80A21967C
S11305500C171D0709F099CFDF91CF911F910F91CF
S1130560FF90EF90DF90CF90BF90AF909F908F90CF
S11305700895CF93DF93C82FD0E080912F019091FD
S113058030019E01281B390B2130310521F02D3F0C
S11305908FEF380731F464E070E082E390E04CDFE1
S11305A018C02F3F8FEF380719F02330310531F48D
S11305B068E070E082E390E03FDF0BC02230310559
S11305C019F02E3F3F4F29F464E070E084E690E098
S11305D033DFD0933001C0932F01DF91CF91089581
S11305E010922801809129018F5F8093290172DD87
S11305F020912901FC01258321E02483BC01809101
S11306005A0190915B017CCD089510922501E091EF
S11306105A01F0915B010280F381E02D81E0808337
S113062008951092270180913301882331F0EAE77D
S1130630F0E0808180648083089580910C01823091
S1130640D1F480915A0190915B016BDD20915C01A2
S113065030915D01FC013283218322E02483BC01BB
S113066080913401909135014BDD8FEF93E09093AD
S11306705D0180935C0181E080932B0108951F92BA
S11306800F920FB60F9211240BB60F922F933F9334
S11306904F935F936F937F938F939F93AF93BF9386
S11306A0EF93FF9381E080932701809133018823A6
S11306B019F01092330103C081E0809333018091DB
S11306C00C01813009F4ADDFFF91EF91BF91AF913F
S11306D09F918F917F916F915F914F913F912F9156
S11306E00F900BBE0F900FBE0F901F901895CF93D5
S11306F010922B01809134019091350112DDFC019F
S1130700818192812081211134C0ADE0B1E04D910D
S11307105C91119712962D913C911397481B590B9C
S1130720BA0122F466277727641B750BA901481BBD
S1130730590B9A0122F422273327241B350B621705
S1130740730750F4A9E1B1E08D919C911197019642
S11307508D939C93C0E048C0A9E1B1E014968D91BB
S11307609C911597019615969C938E931497C2E0CD
S11307703BC02130C1F5ADE0B1E014964D915C91E0
S1130780159716962D913C911797481B590BBA0152
S113079022F466277727641B750BA901481B590BA4
S11307A09A0122F422273327241B350B621773077F
S11307B068F4A9E1B1E016968D919C911797019682
S11307C017969C938E931697C3E00EC0A9E1B1E0EF
S11307D012968D919C911397019613969C938E93E8
S11307E01297C1E001C0C0E0C38383E08483A9E120
S11307F0B1E018968D919C911997019619969C9346
S11308008E931897BF01809158019091590178DC1B
S1130810C8B9CF9108951092260115B88091580156
S1130820909159017EDCBC0180913101909132019B
S113083067DCE0913101F09132010280F381E02D17
S113084083818F5F96DE9FCD089511B88FE884B9B8
S11308508FEF87B980EF8AB91DB810BA18B8F89429
S113086097DD6ADD72DD8FDD5DDDB4DD78943FDC1C
S113087090935B0180935A013ADC90933501809305
S1130880340135DC909359018093580130DC909306
S113089032018093310182E080930C0110922A018D
S11308A01092290114E0C1E7D0E002E080912C010C
S11308B0833069F410922C0180910C01833011F47F
S11308C000930C0180910A0190910B014DDD809100
S11308D00C0180912C01823021F415B988818D7F1F
S11308E088838091280181117BDE8091250181110B
S11308F08CDE80912701811194DE80912B0181117E
S1130900F6DE80912601811186DF80910C0183300F
S113091089F580912C01813041F410922C0115B895
S113092080910A0190910B011FDD8091230188239E
S113093009F110922301E0911801A0911801B0E08F
S1130940AA5FBE4F9C91F0E0EE0FFF1FE75EFE4FE3
S1130950808120E1929F800D112488B98091180133
S1130960833019F41092180105C0809118018F5F2B
S11309708093180180910C01843009F097CF809105
S11309802301882329F01092230188818D7F888395
S113099080915A0190915B01EDDB892B09F486CF9C
S11309A08091340190913501E5DB892B09F47ECFE8
S11309B08091580190915901DDDB892B09F476CFA0
S11309C015B8EAE7F0E080818F778083F89480910E
S11309D05A0190915B01B8DB80913401909135010B
S11309E0B3DB8091580190915901AEDB80913101C4
S11309F090913201A9DB5ACF0F931F93CF93DF93CA
S1130A008230910510F482E090E0E0916001F09171
S1130A10610120E030E0A0E0B0E0309719F14081BE
S1130A2051810281138148175907C8F0841795072B
S1130A3069F4109731F012960C93129713961C9345
S1130A4027C0009360011093610122C02115310574
S1130A5019F04217530718F49A01BD01EF01DF01A1
S1130A60F801DBCF21153105F9F0281B390B2430AF
S1130A70310580F48A819B816115710521F0FB01A8
S1130A809383828304C09093610180936001FE018B
S1130A90329644C0FE01E20FF31F819391932250DA
S1130AA03109398328833AC020915E0130915F0176
S1130AB0232B41F4209102013091030130935F0113
S1130AC020935E012091000130910101211531052F
S1130AD041F42DB73EB74091040150910501241B08
S1130AE0350BE0915E01F0915F01E217F307A0F48A
S1130AF02E1B3F0B2817390778F0AC014E5F5F4F70
S1130B002417350748F04E0F5F1F50935F01409341
S1130B105E018193919302C0E0E0F0E0CF01DF91A8
S1130B20CF911F910F910895CF93DF93009709F40C
S1130B3081C0FC01329713821282A0916001B091AE
S1130B406101109781F420813181820F931F2091DC
S1130B505E0130915F012817390751F5F0935F0169
S1130B60E0935E0167C0ED0120E030E0CE17DF07BF
S1130B7040F44A815B819E0141155105F1F0EA017F
S1130B80F5CFD383C28340815181840F951FC81749
S1130B90D90759F488819981840F951F029691830E
S1130BA080838A819B81938382832115310529F473
S1130BB0F0936101E09360013DC0E901FB83EA83A6
S1130BC049915991C40FD51FEC17FD0761F4808139
S1130BD09181840F951F0296E9019983888382810C
S1130BE093819B838A83E0E0F0E012968D919C913F
S1130BF01397009719F0FD01DC01F7CF8D919C91BB
S1130C0011979D012E5F3F4F820F931F20915E012C
S1130C1030915F012817390769F4309729F410924D
S1130C2061011092600102C013821282B0935F01CD
S1110C30A0935E01DF91CF910895F894FFCF59
S1130C3E00006201200001020408093D0108033589
S1090C4E0332001801004E
S9030000FC
