S0150000536F7274696E6753797374656D2E73726563A4
S11300004BC00000B5C00000C2C00000CFC000005B
S1130010E6C00000F3C0000012C100005AC0000096
S113002058C0000056C0000054C0000052C0000078
S113003050C000004EC000004CC000004AC0000088
S113004048C000008BC0000044C0000042C0000053
S113005040C0000079C000003CC000003AC000006D
S113006038C0000036C0000034C0000032C00000B8
S113007030C00000F9C000002CC000002AC00000FD
S113008028C0000026C0000024C0000022C00000D8
S113009020C000001EC0000011241FBECFEFD0E21C
S11300A0DEBFCDBF11E0A0E0B1E0EAE3FAE000E09A
S11300B00BBF02C007900D92A631B107D9F721E01A
S11300C0A6E1B1E001C01D92A436B207E1F733D333
S11300D0B2C414C188E090E08DD3FC01178216826B
S11300E0108212821182138214821582089584E090
S11300F090E080D3FC011182108213821282089551
S1130100FC01A281B381109739F017967C936E930A
S11301101697738362830895718360837383628304
S11301200895DC01ED91FC911197309739F08681A7
S1130130978111969C938E93892B21F413961C928C
S11301401E921297CF0108951F920F920FB60F922D
S113015011240F900FBE0F901F9018951F920F92AD
S11301600FB60F9211240F900FBE0F901F90189589
S11301701F920F920FB60F9211248F9381E08093F8
S11301805E018F910F900FBE0F901F9018951F92D4
S11301900F920FB60F9211248F9381E080935F0129
S11301A08F910F900FBE0F901F9018951F920F9272
S11301B00FB60F9211248F9381E080935B0180919D
S11301C03101882319F01092310103C081E080933A
S11301D031018F910F900FBE0F901F9018951F92B1
S11301E00F920FB60F9211248F9381E080932C010C
S11301F08F910F900FBE0F901F9018951F920F9222
S11302000FB60F9211248F9380913001823039F40C
S113021081E08093230183E08093300107C08091C3
S11302203001833019F482E08093300180913001F1
S113023088B98F910F900FBE0F901F9018951F9241
S11302400F920FB60F9211248F9381E080932201B5
S113025084E0809330018091300188B98F910F90B0
S11302600FBE0F901F9018951F920F920FB60F920A
S113027011240BB60F922F933F938F939F93EF9379
S1130280FF9380913101882361F18091790090E09E
S1130290909329018093280180912801909129014C
S11302A020917800982F8827822B9093290180939E
S11302B02801209128013091290180915C019091BD
S11302C05D012817390740F4809128019091290194
S11302D090935D0180935C01EAE7F0E080818064A3
S11302E08083FF91EF919F918F913F912F910F9078
S11302F00BBE0F900FBE0F901F9018951F920F9278
S11303000FB60F9211240F900FBE0F901F901895E7
S11303108AE9809369008AE080936A008DB38F63D1
S11303208DBB089584B5836884BD85B5826085BD21
S113033080E887BD089584E085B980E787BD089586
S11303408FEF93E0909329018093280190935D01AE
S113035080935C011092310110923201ECE7F0E0DD
S1130360808180648083EAE7F0E08081826080831A
S113037080818160808380818860808380818068BF
S1130380808308958FEF81B985E382B981E090E09D
S113039090932B0180932A011092560110925501DB
S11303A00895AC01E1E8F0E0908191609083908140
S11303B09860908388EE93E09093890080938800FE
S11303C01092850010928400B19A20E030E005C0BC
S11303D0B19BFECFB19A2F5F3F4F241735071CF412
S11303E0B19BF6CFF7CF0895CF92DF92EF92FF92B1
S11303F00F931F93CF93DF93181619060CF061C067
S11304006B018C01C0E0D0E00F2EFAE0EF2EF12C4E
S1130410F02D81E0C816D104D1F4E0911601F091D9
S11304201701E65FFE4F808182B980911601909199
S11304301701019683709078992324F401978C6FA7
S11304409F6F019690931701809316011DC08FEF43
S1130450C816D806C9F4E0911601F0911701EA5FB5
S1130460FE4F808182B98091160190911701019607
S113047083709078992324F401978C6F9F6F019671
S11304809093170180931601C7018BDFC430D10507
S11304903CF486E0E816F1041CF081E0E81AF10867
S11304A0C8018C1B9D0B05973CF48BE0E816F10406
S11304B01CF48FEFE81AF80A21960C171D0709F0AF
S11304C0A8CFDF91CF911F910F91FF90EF90DF9014
S11304D0CF900895CF93DF93C82FD0E080912A0165
S11304E090912B019E01281B390B2130310521F0FD
S11304F02D3F8FEF380731F461E070E082E390E044
S113050073DF18C02F3F8FEF380719F02330310500
S113051031F46FEF7FEF82E390E066DF0BC02230AF
S1130520310519F02E3F3F4F29F461E070E084E675
S113053090E05ADFD0932B01C0932A01DF91CF9131
S1130540089510925E01809124018F5F80932401AD
S1130550C1DD20912401FC01258321E02483BC0119
S11305608091590190915A01CBCD089510925F0169
S1130570E0915901F0915A010280F381E02D81E06C
S11305808083089510925B0180913101882331F0BA
S1130590EAE7F0E0808180648083089580913001EF
S11305A08230A1F48091590190915A01BADD2091D1
S11305B05C0130915D01FC013283218322E02483BC
S11305C0BC0180913301909134019ADD8FEF93E067
S11305D090935D0180935C0181E0809332010895E2
S11305E01092320180913301909134019ADDFC0123
S11305F0818192812081211134C0AEE0B1E04D911E
S11306005C91119712962D913C911397481B590BAD
S1130610BA0122F466277727641B750BA901481BCE
S1130620590B9A0122F422273327241B350B621716
S1130630730750F4A8E1B1E08D919C911197019654
S11306408D939C9380E048C0A8E1B1E014968D910D
S11306509C911597019615969C938E93149782E01E
S11306603BC02130C1F5AEE0B1E014964D915C91F0
S1130670159716962D913C911797481B590BBA0163
S113068022F466277727641B750BA901481B590BB5
S11306909A0122F422273327241B350B6217730790
S11306A068F4A8E1B1E016968D919C911797019694
S11306B017969C938E93169783E00EC0A8E1B1E041
S11306C012968D919C911397019613969C938E93F9
S11306D0129781E001C080E0838383E08483A8E1F2
S11306E0B1E018968D919C911997019619969C9357
S11306F08E931897BF01809157019091580100CDB6
S1130700089510922C0115B88091570190915801C9
S113071008DDBC0180912D0190912E01F1DCE09166
S11307202D01F0912E010280F381E02D83818F5FF2
S1130730D1DE01CE089511B88FE884B98FEF87B95F
S113074080EF8AB91DB810BA18B8F894F9DDEADD5B
S1130750F2DDDEDD17DE7894CADC90935A018093D3
S11307605901C5DC9093340180933301C0DC90932C
S1130770580180935701BBDC90932E0180932D0187
S113078082E08093300110922F0110922401809115
S1130790300188B9809130018230B1F480915E01DA
S11307A08111CFDE80915F018111E0DE80915B01D8
S11307B08111E8DE80913201811112DF80912C01D8
S11307C0882329F39EDFE3CF80913001833039F40D
S11307D0809123018823D9F210922301D8CF8091EC
S11307E030018430A1F680912201882381F2109295
S11307F02201CDCF0F931F93CF93DF9382309105C6
S113080010F482E090E0E0916201F091630120E055
S113081030E0A0E0B0E0309719F1408151810281CD
S1130820138148175907C8F08417950769F410977E
S113083031F012960C93129713961C9327C00093D1
S113084062011093630122C02115310519F042178A
S1130850530718F49A01BD01EF01DF01F801DBCF62
S113086021153105F9F0281B390B2430310580F4AA
S11308708A819B816115710521F0FB019383828339
S113088004C09093630180936201FE01329644C0D8
S1130890FE01E20FF31F81939193225031093983B2
S11308A028833AC02091600130916101232B41F4E7
S11308B02091020130910301309361012093600182
S11308C020910001309101012115310541F42DB72A
S11308D03EB74091040150910501241B350BE09172
S11308E06001F0916101E217F307A0F42E1B3F0BA6
S11308F02817390778F0AC014E5F5F4F241735078E
S113090048F04E0F5F1F5093610140936001819343
S1130910919302C0E0E0F0E0CF01DF91CF911F910D
S11309200F910895CF93DF93009709F481C0FC01E0
S1130930329713821282A0916201B09163011097E1
S113094081F420813181820F931F209160013091C5
S113095061012817390751F5F0936101E0936001B3
S113096067C0ED0120E030E0CE17DF0740F44A8194
S11309705B819E0141155105F1F0EA01F5CFD38366
S1130980C28340815181840F951FC817D90759F438
S113099088819981840F951F0296918380838A812F
S11309A09B81938382832115310529F4F09363019C
S11309B0E09362013DC0E901FB83EA8349915991C7
S11309C0C40FD51FEC17FD0761F480819181840F5A
S11309D0951F0296E90199838883828193819B8381
S11309E08A83E0E0F0E012968D919C911397009732
S11309F019F0FD01DC01F7CF8D919C9111979D01B8
S1130A002E5F3F4F820F931F20916001309161014F
S1130A102817390769F4309729F41092630110926A
S1130A20620102C013821282B0936101A09360013B
S10D0A30DF91CF910895F894FFCFF1
S1130A3A0000640120002D2E363535362E2DD002C5
S1090A4AEE027C016202D1
S9030000FC
