S0150000536F7274696E6753797374656D2E73726563A4
S11300004BC00000B5C0000064C00000C2C00000C6
S1130010DAC000005EC000005CC000005AC00000EE
S113002058C0000056C0000054C0000052C0000078
S113003050C000004EC000004CC000004AC0000088
S113004048C000008BC0000044C0000042C0000053
S113005040C0000079C000003CC000003AC000006D
S113006038C0000036C0000034C0000032C00000B8
S113007030C00000B8C000002CC000002AC000003E
S113008028C0000026C0000024C0000022C00000D8
S113009020C000001EC0000011241FBECFEFD0E21C
S11300A0DEBFCDBF11E0A0E0B1E0E4EDF8E000E098
S11300B00BBF02C007900D92A631B107D9F721E01A
S11300C0A6E1B1E001C01D92A136B207E1F797D2D3
S11300D0FFC3D3C088E090E0DAD2FC011782168215
S11300E0108212821182138214821582089584E090
S11300F090E0CDD2FC011182108213821282089505
S1130100FC01A281B381109739F017967C936E930A
S11301101697738362830895718360837383628304
S11301200895DC01ED91FC911197309739F08681A7
S1130130978111969C938E93892B21F413961C928C
S11301401E921297CF0108951F920F920FB60F922D
S113015011240F900FBE0F901F9018951F920F92AD
S11301600FB60F9211240F900FBE0F901F90189589
S11301701F920F920FB60F9211248F9380E188B9CA
S113018081E080935C018F910F900FBE0F901F90C0
S113019018951F920F920FB60F9211248F93469ABF
S11301A081E08093590180912F01882319F01092E6
S11301B02F0103C081E080932F018F910F900FBE18
S11301C00F901F9018951F920F920FB60F92112443
S11301D08F93479A81E080932A018F910F900FBEED
S11301E00F901F9018951F920F920FB60F92112423
S11301F00BB60F922F933F938F939F93EF93FF939D
S113020080912F01882361F18091790090E090938F
S11302102701809326018091260190912701209146
S11302207800982F8827822B9093270180932601AA
S1130230209126013091270180915A0190915B0110
S11302402817390740F48091260190912701909353
S11302505B0180935A01EAE7F0E080818064808347
S1130260FF91EF919F918F913F912F910F900BBE32
S11302700F900FBE0F901F9018951F920F920FB6FC
S11302800F9211240F900FBE0F901F9018958AE9BA
S1130290809369008DB38F608DBB089584B58368A6
S11302A084BD85B5826085BD80E887BD089584E0FE
S11302B085B980E387BD08958FEF93E0909327017C
S11302C08093260190935B0180935A0110922F0131
S11302D010923001ECE7F0E0808180648083EAE7EB
S11302E0F0E080818260808380818160808380816E
S11302F08860808380818068808308958FEF81B9CE
S113030085E382B981E090E09093290180932801EC
S113031010925401109253010895AC01E1E8F0E009
S113032090819160908390819860908388EE93E0AF
S11303309093890080938800109285001092840025
S1130340B19A20E030E005C0B19BFECFB19A2F5F97
S11303503F4F241735071CF4B19BF6CFF7CF089510
S1130360CF92DF92EF92FF920F931F93CF93DF937D
S1130370181619060CF061C06B018C01C0E0D0E0C6
S11303800F2EFAE0EF2EF12CF02D81E0C816D104E7
S1130390D1F4E0911601F0911701E65FFE4F8081E0
S11303A082B980911601909117010196837090781B
S11303B0992324F401978C6F9F6F019690931701F2
S11303C0809316011DC08FEFC816D806C9F4E091BA
S11303D01601F0911701EA5FFE4F808182B9809186
S11303E0160190911701019683709078992324F453
S11303F001978C6F9F6F019690931701809316015C
S1130400C7018BDFC430D1053CF486E0E816F10463
S11304101CF081E0E81AF108C8018C1B9D0B0597BC
S11304203CF48BE0E816F1041CF48FEFE81AF80AA8
S113043021960C171D0709F0A8CFDF91CF911F91CA
S11304400F91FF90EF90DF90CF900895CF93DF93BB
S113045015B8C82FD0E080912801909129019E0100
S1130460281B390B2130310521F02D3F8FEF380740
S113047031F461E070E082E390E072DF18C02F3F56
S11304808FEF380719F02330310531F46FEF7FEF28
S113049082E390E065DF0BC02230310519F02E3F76
S11304A03F4F29F461E070E084E690E059DFD09397
S11304B02901C093280184E085B9DF91CF91089583
S11304C080E188B910925C01809122018F5F809352
S11304D0220100DE20912201FC01258321E02483F6
S11304E0BC0180915701909158010ACE0895109251
S11304F0590180912F01882331F0EAE7F0E08081EF
S113050080648083089580912E018230D1F480919B
S113051057019091580105DE20915A0130915B01F9
S1130520FC013283218322E02483BC0180913101C8
S113053090913201E5DD8FEF93E090935B0180931E
S11305405A0181E0809330010895CF93DF93109294
S113055030018091310190913201E3DDEC01A981F8
S1130560BA8180E090E060E0FC01EE0FFF1FE25FE3
S1130570FE4F208131812A1B3B0BA90122F4442721
S11305805527421B530B4F3F510508F4682F019622
S11305908430910549F7E62FF0E0A8E1B1E0EE0FD1
S11305A0FF1FE85EFE4F80819181019691838083D5
S11305B018968D919C911997019619969C938E93F8
S11305C018976B8383E08C83BE01809155019091D1
S11305D0560196DD98B18B81892B88B9DF91CF9133
S11305E0089510922A01809155019091560199DD48
S11305F0BC0180912B0190912C0182CD089511B8FA
S11306008FE884B98FEF87B980EF8AB91DB810BA23
S113061018B8F89451DE42DE4ADE39DE6FDE789493
S113062066DD909358018093570161DD9093320108
S1130630809331015CDD909356018093550157DD21
S113064090932C0180932B0182E080932E011092D1
S11306502D011092220180915C01811131DF809182
S11306605901811144DF8091300181116EDF809145
S11306702A01882381F3B5DFE0912B01F0912C014D
S11306800280F381E02D83818F5FE0DEE4CF0F935E
S11306901F93CF93DF938230910510F482E090E0B2
S11306A0E0915F01F091600120E030E0A0E0B0E073
S11306B0309719F1408151810281138148175907FC
S11306C0C8F08417950769F4109731F012960C93CB
S11306D0129713961C9327C000935F011093600137
S11306E022C02115310519F04217530718F49A0155
S11306F0BD01EF01DF01F801DBCF21153105F9F070
S1130700281B390B2430310580F48A819B816115C3
S1130710710521F0FB019383828304C090936001EF
S113072080935F01FE01329644C0FE01E20FF31F85
S11307308193919322503109398328833AC02091BF
S11307405D0130915E01232B41F42091020130912F
S1130750030130935E0120935D01209100013091EB
S113076001012115310541F42DB73EB74091040133
S113077050910501241B350BE0915D01F0915E0160
S1130780E217F307A0F42E1B3F0B2817390778F064
S1130790AC014E5F5F4F2417350748F04E0F5F1FC3
S11307A050935E0140935D018193919302C0E0E018
S11307B0F0E0CF01DF91CF911F910F910895CF9376
S11307C0DF93009709F481C0FC01329713821282EF
S11307D0A0915F01B0916001109781F42081318173
S11307E0820F931F20915D0130915E012817390714
S11307F051F5F0935E01E0935D0167C0ED0120E0E7
S113080030E0CE17DF0740F44A815B819E01411539
S11308105105F1F0EA01F5CFD383C28340815181C0
S1130820840F951FC817D90759F488819981840FBB
S1130830951F0296918380838A819B81938382830F
S11308402115310529F4F0936001E0935F013DC067
S1130850E901FB83EA8349915991C40FD51FEC1731
S1130860FD0761F480819181840F951F0296E9014F
S113087099838883828193819B838A83E0E0F0E07B
S113088012968D919C911397009719F0FD01DC014C
S1130890F7CF8D919C9111979D012E5F3F4F820F51
S11308A0931F20915D0130915E012817390769F487
S11308B0309729F41092600110925F0102C01382F4
S11308C01282B0935E01A0935D01DF91CF910895F0
S10708D0F894FFCFC6
S11308D40000610120002D2E363535362E2DEA0216
S10908E46C020B03B601D7
S9030000FC
