:100000004BC00000C8C00000FEC0000019C10000C5
:10001000E2C200005EC000005CC000005AC00000E8
:1000200058C0000056C0000054C0000052C000007C
:1000300050C000004EC000004CC000004AC000008C
:1000400048C0000046C0000044C0000042C000009C
:1000500040C0000096C000003CC000003AC0000054
:1000600038C0000036C0000034C0000032C00000BC
:1000700030C000003BC100002CC000002AC00000BE
:1000800028C0000026C0000024C0000022C00000DC
:1000900020C000001EC0000011241FBECFEFD0E220
:1000A000DEBFCDBF11E0A0E0B1E0E6EFFAE000E096
:1000B0000BBF02C007900D92A031B107D9F721E024
:1000C000A0E1B1E001C01D92AC34B207E1F7A4D3C6
:1000D00010C54FC188E090E0EBD3FC011782168277
:1000E000108212821182138214821582089584E094
:1000F00090E0DED3FC0111821082138212820895F7
:10010000FC01A281B381109739F017967C936E930E
:100110001697738362830895718360837383628308
:100120000895DC01ED91FC911197309771F0868173
:10013000978111969C938E93892B51F413961C9260
:100140001E9212978E2F9F2F089580E090E00895C1
:100150008E2F9F2F0895CF93DF93EC018881998193
:10016000009751F0FC01268137813983288338D4E8
:10017000888199810097B1F71B821A82DF91CF9114
:1001800008951F920F920FB60F9211240F900FBE79
:100190000F901F9018951F920F920FB60F92112477
:1001A0000BB60F922F933F934F935F936F937F9371
:1001B0008F939F93AF93BF93EF93FF93809112011F
:1001C0008F5F8093120186DF20911201FC0125834D
:1001D00021E02483BC01809144019091450190DF8E
:1001E000FF91EF91BF91AF919F918F917F916F910F
:1001F0005F914F913F912F910F900BBE0F900FBECB
:100200000F901F9018951F920F920FB60F92112406
:100210000BB60F928F93EF93FF93E0914401F0910F
:1002200045010280F381E02D81E08083FF91EF9111
:100230008F910F900BBE0F900FBE0F901F901895CF
:100240001F920F920FB60F9211240BB60F922F939D
:100250003F934F935F936F937F938F939F93AF934E
:10026000BF93EF93FF9380911D01882321F180912B
:1002700006018230D1F4809144019091450151DF13
:100280002091460130914701FC013283218322E015
:100290002483BC0180911E0190911F0131DF8FEFFB
:1002A00093E0909347018093460110921D0181E0F5
:1002B0008093140108C081E080931D01EAE7F0E01B
:1002C000808180648083FF91EF91BF91AF919F9176
:1002D0008F917F916F915F914F913F912F910F90EF
:1002E0000BBE0F900FBE0F901F9018951F920F928C
:1002F0000FB60F9211240BB60F922F933F938F934B
:100300009F93EF93FF9380911D01882329F1209102
:1003100078008091790090E0982F8827820F911DB6
:1003200090931801809317012091170130911801C3
:1003300080914601909147012817390740F4809138
:100340001701909118019093470180934601EAE7C5
:10035000F0E0808180648083FF91EF919F918F9185
:100360003F912F910F900BBE0F900FBE0F901F90DB
:1003700018951F920F920FB60F9211240F900FBE77
:100380000F901F9018958AE9809369008DB38F6054
:100390008DBB089584B5836884BD85B5826085BDB5
:1003A00080E887BD089584E085B980E387BD08951E
:1003B0008FEF93E09093180180931701909347017A
:1003C0008093460110921D0110921401ECE7F0E0B9
:1003D000808180648083EAE7F0E0808182608083AE
:1003E0008081816080838081886080838081806853
:1003F000808308958FEF81B985E382B981E090E031
:1004000090931A01809319011092410110924001BA
:100410000895AC01E1E8F0E09081916090839081D3
:100420009860908388EE93E0909389008093880091
:100430001092850010928400B19A20E030E005C04F
:10044000B19BFECFB19A2F5F3F4F241735071CF4A5
:10045000B19BF6CFF7CF0895CF92DF92EF92FF9244
:100460000F931F93CF93DF93181619060CF061C0FA
:100470006B018C01C0E0D0E00F2EF2E1EF2EF12CE9
:10048000F02D81E0C816D104D1F4E0911001F09173
:100490001101E55FFE4F808182B98091100190913A
:1004A0001101019683709078992324F401978C6F41
:1004B0009F6F019690931101809310011DC08FEFE3
:1004C000C816D806C9F4E0911001F0911101E95F56
:1004D000FE4F808182B980911001909111010196A7
:1004E00083709078992324F401978C6F9F6F019605
:1004F0009093110180931001C7018BDFC530D105A6
:100500003CF488E0E816F1041CF082E0E81AF108F7
:10051000C8018C1B9D0B06973CF483E1E816F1049F
:100520001CF482E0E80EF11C21960C171D0709F05F
:10053000A8CFDF91CF911F910F91FF90EF90DF90A7
:10054000CF900895CF93DF9321E030E030934101C5
:1005500020934001C82FD0E08091190190911A0199
:100560009E01281B390BC9012130310521F08D3F37
:100570003FEF930731F461E070E082E390E06CDFDD
:1005800017C08F3F2FEF920719F08330910531F498
:100590006FEF7FEF82E390E05FDF0AC0823091056A
:1005A00011F0029629F461E070E084E690E054DFF7
:1005B000D0931A01C0931901109241011092400189
:1005C00080911301882321F080E387BD10921301ED
:1005D000DF91CF9108951F920F920FB60F921124C1
:1005E0000BB60F922F933F934F935F936F937F932D
:1005F0008F939F93AF93BF93EF93FF9380914201AB
:10060000909143018EDDBC0180911B0190911C01F2
:1006100077DD15B8E0911B01F0911C010280F38198
:10062000E02D83818F5F8EDFBEDEFF91EF91BF9162
:10063000AF919F918F917F916F915F914F913F917A
:100640002F910F900BBE0F900FBE0F901F9018951B
:100650002BB12F702BB99C01337028B92BB1AC0191
:1006600044275170529542954F7045275F7045273A
:10067000882792709695879596958795840F822BFB
:100680008BB908952F923F924F925F926F927F9213
:100690008F929F92AF92BF92CF92DF92EF92FF9292
:1006A0000F931F93CF93DF93CDB7DEB764970FB649
:1006B000F894DEBF0FBECDBF812C912C0F2ECC2421
:1006C000CA94F3E0DF2EF02D22242A945E0145E146
:1006D000A40EB11C6894332432F881C080911401B7
:1006E0008823E1F398B92091460130914701219385
:1006F0003193D0924701C0924601109214019F5F3E
:100700009B3061F728B815B884E690E082DE098155
:100710001A81FE0133969801780181919191E81632
:10072000F90628F48F3F43E0940709F07C01801715
:10073000910708F48C01280F391FEA15FB0569F7AA
:100740002701400E511E56944794ADECBCECA1D04D
:100750003C01769467947694679476946794F40158
:10076000EE0FFF1FEE0FFF1FEE0FFF1FE05EFE4FAD
:1007700011830083F382E28255824482778266820B
:1007800081E088B988EE93E044DEC80161DF88E546
:100790009BE13FDE42E048B988EE93E03ADEC701D4
:1007A00057DF88E59BE135DE83E088B988EE93E08A
:1007B00030DEC2014DDF88E59BE12BDE38B888EEE4
:1007C00093E027DEC30144DF88E59BE122DE35B8F4
:1007D0004FEF841A940A84E08816910421F0FE01F8
:1007E000319691E07BCF64960FB6F894DEBF0FBED2
:1007F000CDBFDF91CF911F910F91FF90EF90DF90D0
:10080000CF90BF90AF909F908F907F906F905F90B0
:100810004F903F902F90089511B88FE884B98FEFD3
:1008200087B980EF8AB91DB810BA18B8F894C0DD3E
:10083000B1DDB9DDA8DDDEDD5ADC909345018093A2
:10084000440155DC90931F0180931E0150DC90936E
:100850004301809342014BDC90931C0180931B0168
:10086000789410DF809144019091450174DC80916F
:100870001E0190911F016FDC809142019091430114
:100880006ADC80911B0190911C0165DC80E090E0A6
:100890000895A29FB001B39FC001A39F700D811D59
:1008A0001124911DB29F700D811D1124911D089579
:1008B0000F931F93CF93DF938230910510F482E062
:1008C00090E0E0914A01F0914B0120E030E0A0E09F
:1008D000B0E0309719F140815181028113814817AE
:1008E0005907C8F08417950769F4109731F01296EC
:1008F0000C93129713961C9327C000934A011093F0
:100900004B0122C02115310519F04217530718F485
:100910009A01BD01EF01DF01F801DBCF211531059F
:10092000F9F0281B390B2430310580F48A819B8132
:100930006115710521F0FB019383828304C09093BC
:100940004B0180934A01FE01329644C0FE01E20F42
:10095000F31F8193919322503109398328833AC040
:100960002091480130914901232B41F4209102014B
:1009700030910301309349012093480120910001F7
:10098000309101012115310541F42DB73EB7409159
:10099000040150910501241B350BE0914801F091B1
:1009A0004901E217F307A0F42E1B3F0B2817390764
:1009B00078F0AC014E5F5F4F2417350748F04E0FBB
:1009C0005F1F50934901409348018193919302C066
:1009D000E0E0F0E0CF01DF91CF911F910F910895FA
:1009E000CF93DF93009709F481C0FC013297138203
:1009F0001282A0914A01B0914B01109781F420819D
:100A00003181820F931F20914801309149012817AD
:100A1000390751F5F0934901E093480167C0ED01B2
:100A200020E030E0CE17DF0740F44A815B819E0171
:100A300041155105F1F0EA01F5CFD383C28340811E
:100A40005181840F951FC817D90759F4888199815E
:100A5000840F951F0296918380838A819B81938363
:100A600082832115310529F4F0934B01E0934A016B
:100A70003DC0E901FB83EA8349915991C40FD51F19
:100A8000EC17FD0761F480819181840F951F029618
:100A9000E90199838883828193819B838A83E0E043
:100AA000F0E012968D919C911397009719F0FD013B
:100AB000DC01F7CF8D919C9111979D012E5F3F4FE7
:100AC000820F931F2091480130914901281739075F
:100AD00069F4309729F410924B0110924A0102C038
:100AE00013821282B0934901A0934801DF91CF9104
:060AF0000895F894FFCF09
:100AF60000004C012000012D2E363535362E2D00F6
:00000001FF
