S0150000536F7274696E6753797374656D2E73726563A4
S11300004BC00000E1C00000EEC0000045C300008A
S1130010F9C0000006C1000026C100005AC000005B
S113002058C0000056C0000054C0000052C0000078
S113003050C000004EC000004CC000004AC0000088
S113004048C0000046C0000044C0000042C0000098
S113005040C0000099C000003CC000003AC000004D
S113006038C0000036C0000034C0000032C00000B8
S113007030C000000AC100002CC000002AC00000EB
S11300808DC0000026C0000024C0000022C0000073
S113009020C000001EC0000011241FBECFEFD0E21C
S11300A0DEBFCDBF11E0A0E0B1E0E8E6FCE000E097
S11300B00BBF02C007900D92A231B107D9F721E01E
S11300C0A2E1B1E001C01D92AE35B207E1F7CAD397
S11300D0C9C51EC188E090E0A4D4FC011782168231
S11300E0108212821182138214821582089584E090
S11300F090E097D4FC011182108213821282089539
S1130100FC01A281B381109739F017967C936E930A
S11301101697738362830895718360837383628304
S11301200895DC01ED91FC911197309739F08681A7
S1130130978111969C938E93892B21F413961C928C
S11301401E921297CF010895CF93DF93EC0188811B
S11301509981009751F0FC012681378139832883E6
S1130160F8D4888199810097B1F71B821A82DF91B4
S1130170CF910895FC0181E090E020813181232B0F
S113018011F080E090E008951F920F920FB60F9245
S113019011240F900FBE0F901F9018951F920F926D
S11301A00FB60F9211248F9381E080931F018091E9
S11301B02001882319F084E0809308018F910F9027
S11301C00FBE0F901F9018951F920F920FB60F92AB
S11301D011248F9381E0809324018F910F900FBE9F
S11301E00F901F9018951F920F920FB60F92112423
S11301F08F9381E0809321018F910F900FBE0F9018
S11302001F9018951F920F920FB60F9211248F937F
S113021081E0809322018F910F900FBE0F901F9069
S113022018951F920F920FB60F9211248F938091FD
S11302300801823039F481E08093280183E08093BF
S113024008010BC080910801833039F482E0809367
S1130250280180930801109214018F910F900FBE12
S11302600F901F9018951F920F920FB60F921124A2
S11302708F9383E08093280181E0809320018F9104
S11302800F900FBE0F901F9018951F920F920FB6EC
S11302900F9211240BB60F922F933F938F939F933A
S11302A0EF93FF9380912F01882329F12091780007
S11302B08091790090E0982F8827820F911D909368
S11302C02A01809329012091290130912A018091EA
S11302D05801909159012817390740F48091290158
S11302E090912A019093590180935801EAE7F0E034
S11302F0808180648083FF91EF919F918F913F91E2
S11303002F910F900BBE0F900FBE0F901F9018955A
S11303101F920F920FB60F9211240F900FBE0F90E1
S11303201F9018958AE9809369008AE080936A0097
S11303308DB38F638DBB089584B5836884BD85B503
S1130340826085BD80E887BD0895E1E9F0E08081A1
S11303508B608083E1E7F0E0808182608083C19AD2
S113036080818D7F808308959C01E1E7F0E0908196
S113037092609083109295001092940030939900AB
S113038020939800089584E085B980E787BD089597
S11303908FEF93E090932A01809329019093590160
S11303A08093580110922F0110922701ECE7F0E09E
S11303B0808180648083EAE7F0E0808182608083CA
S11303C0808181608083808188608083808180686F
S11303D0808308958FEF81B985E382B981E090E04D
S11303E090932C0180932B0110925301109252018F
S11303F00895AC01E1E8F0E09081916090839081F0
S11304009860908388EE93E09093890080938800AD
S11304101092850010928400B19A20E030E005C06B
S1130420B19BFECFB19A2F5F3F4F241735071CF4C1
S1130430B19BF6CFF7CF08956F927F928F929F92E0
S1130440AF92BF92CF92DF92EF92FF920F931F93DE
S1130450CF93DF93181619060CF089C07B018C0129
S1130460C0E0D0E06894CC24C4F8D12C0F2EFDE277
S11304706F2EF02D0F2EF6E37F2EF02D0F2EFEE2C1
S11304808F2EF02D0F2EF5E39F2EF02D6894AA24C5
S1130490A2F8B12C81E0E816F10491F480911201E4
S11304A09091130183709078992324F401978C6FB1
S11304B09F6F01960196909313018093120115C0CA
S11304C08FEFE816F80689F48091120190911301D8
S11304D0019783709078992324F401978C6F9F6F10
S11304E001969093130180931201809112019091CF
S11304F01301009729F4B0921301A092120119C0BC
S11305008230910571F01CF4019739F015C08330E5
S1130510910559F0049781F40CC092B8C60169DFC3
S11305200BC072B8C60165DF07C082B8C60161DFBF
S113053003C062B8C6015DDFC830D1053CF488E071
S1130540C816D1041CF081E0C81AD108C8018C1B5C
S11305509D0B09973CF481E1C816D1041CF48FEF7C
S1130560C81AD80A21960C171D0709F093CFDF91FA
S1130570CF911F910F91FF90EF90DF90CF90BF909C
S1130580AF909F908F907F906F900895CF93DF935B
S1130590C82FD0E080912B0190912C019E01281B43
S11305A0390B2130310521F02D3F8FEF380731F41D
S11305B061E070E082E390E03FDF18C02F3F8FEFEF
S11305C0380719F02330310531F46FEF7FEF82E300
S11305D090E032DF0BC02230310519F02E3F3F4F3F
S11305E029F461E070E084E690E026DFD0932C01EA
S11305F0C0932B01DF91CF91089510922401809133
S113060025018F5F8093250165DD20912501FC0183
S1130610258321E02483BC018091560190915701E8
S11306206FCD089510922101E0915601F091570188
S11306300280F381E02D81E08083089510922301EC
S113064080912F01882331F0EAE7F0E08081806413
S113065080830895809108018230D1F480915601FD
S1130660909157015EDD2091580130915901FC01B0
S11306703283218322E02483BC0180913001909154
S113068031013EDD8FEF93E090935901809358013F
S113069081E08093270108951F920F920FB60F9265
S11306A011240BB60F922F933F934F935F936F9345
S11306B07F938F939F93AF93BF93EF93FF9381E0C7
S11306C08093230180912F01882319F010922F0128
S11306D003C081E080932F0180910801813009F4E7
S11306E0ADDFFF91EF91BF91AF919F918F917F917A
S11306F06F915F914F913F912F910F900BBE0F908F
S11307000FBE0F901F901895CF93109227018091E0
S113071030019091310105DDFC01818192812081BC
S1130720211134C0A9E0B1E04D915C91119712966A
S11307302D913C911397481B590BBA0122F466275B
S11307407727641B750BA901481B590B9A0122F4E6
S113075022273327241B350B6217730750F4A5E1B6
S1130760B1E08D919C91119701968D939C93C0E07B
S113077048C0A5E1B1E014968D919C91159701961E
S113078015969C938E931497C2E03BC02130C1F51B
S1130790A9E0B1E014964D915C91159716962D91B0
S11307A03C911797481B590BBA0122F46627772707
S11307B0641B750BA901481B590B9A0122F42227CB
S11307C03327241B350B6217730768F4A5E1B1E0E6
S11307D016968D919C911797019617969C938E93DC
S11307E01697C3E00EC0A5E1B1E012968D919C91DD
S11307F01397019613969C938E931297C1E001C0B0
S1130800C0E0C38383E08483A5E1B1E018968D91B1
S11308109C911997019619969C938E931897BF01F2
S113082080915401909155016BDCC8B9CF91089522
S11308301092220115B8809154019091550171DCF8
S1130840BC0180912D0190912E015ADCE0912D0183
S1130850F0912E010280F381E02D83818F5F96DE7B
S113086092CD089511B88FE884B98FEF87B980EFDE
S11308708AB91DB810BA18B8F8948ADD5DDD65DD53
S113088082DD50DDA7DD789432DC909357018093AC
S113089056012DDC909331018093300128DC909334
S11308A055018093540123DC90932E0180932D01F4
S11308B082E0809308011092260110922501C1E77D
S11308C0D0E001E010E06894EE24E1F86894FF249D
S11308D0F2F880912801833069F410922801809104
S11308E00801833011F4E09208018091060190918F
S11308F007013ADD8091080180912801823021F4BA
S1130900F5B888818D7F888380912401811175DEFB
S113091080912101811186DE8091230181118EDE77
S1130920809127018111F0DE80912201811180DF05
S113093080910801833099F580912801813041F438
S11309401092280115B880910601909107010CDDE1
S113095080911F01882319F110921F01E091140165
S113096080911401980102C0220F331F8A95E2F787
S1130970F0E0EE0FFF1FEB5EFE4F808190E1299FB8
S1130980800D112488B980911401833019F41092D8
S1130990140105C0809114018F5F8093140180912C
S11309A00801843009F095CF80911F01882329F034
S11309B010921F0188818D7F8883809156019091C8
S11309C05701D8DB892B09F484CF809130019091B1
S11309D03101D0DB892B09F47CCF809154019091B3
S11309E05501C8DB892B09F474CF15B8EAE7F0E0A8
S11309F080818F778083F89480915601909157017C
S1130A00A3DB80913001909131019EDB80915401F0
S1130A109091550199DB80912D0190912E0194DBE9
S1130A2055CF0F931F93CF93DF938230910510F42A
S1130A3082E090E0E0915C01F0915D0120E030E023
S1130A40A0E0B0E0309719F1408151810281138117
S1130A5048175907C8F08417950769F4109731F0BF
S1130A6012960C93129713961C9327C000935C0163
S1130A7010935D0122C02115310519F04217530767
S1130A8018F49A01BD01EF01DF01F801DBCF211554
S1130A903105F9F0281B390B2430310580F48A81A3
S1130AA09B816115710521F0FB019383828304C04E
S1130AB090935D0180935C01FE01329644C0FE0177
S1130AC0E20FF31F819391932250310939832883D4
S1130AD03AC020915A0130915B01232B41F42091BB
S1130AE002013091030130935B0120935A0120915C
S1130AF00001309101012115310541F42DB73EB7B4
S1130B004091040150910501241B350BE0915A01D9
S1130B10F0915B01E217F307A0F42E1B3F0B28179B
S1130B20390778F0AC014E5F5F4F2417350748F062
S1130B304E0F5F1F50935B0140935A018193919331
S1130B4002C0E0E0F0E0CF01DF91CF911F910F915F
S1130B500895CF93DF93009709F481C0FC01329785
S1130B6013821282A0915C01B0915D01109781F40F
S1130B7020813181820F931F20915A0130915B01B2
S1130B802817390751F5F0935B01E0935A0167C0C8
S1130B90ED0120E030E0CE17DF0740F44A815B81AD
S1130BA09E0141155105F1F0EA01F5CFD383C283CB
S1130BB040815181840F951FC817D90759F4888142
S1130BC09981840F951F0296918380838A819B81EA
S1130BD0938382832115310529F4F0935D01E09319
S1130BE05C013DC0E901FB83EA8349915991C40F3B
S1130BF0D51FEC17FD0761F480819181840F951F47
S1130C000296E90199838883828193819B838A83F5
S1130C10E0E0F0E012968D919C911397009719F003
S1130C20FD01DC01F7CF8D919C9111979D012E5F01
S1130C303F4F820F931F20915A0130915B01281777
S1130C40390769F4309729F410925D0110925C0120
S1130C5002C013821282B0935B01A0935A01DF9108
S10B0C60CF910895F894FFCF31
S1130C6800005E012000093D01200311036400FA1D
S1050C78000076
S9030000FC
