S0150000536F7274696E6753797374656D2E73726563A4
S11300004BC00000B5C00000C2C00000CFC000005B
S1130010E6C000005EC000005CC000005AC00000E2
S113002058C0000056C0000054C0000052C0000078
S113003050C000004EC000004CC000004AC0000088
S113004048C000008BC0000044C0000042C0000053
S113005040C0000079C000003CC000003AC000006D
S113006038C0000036C0000034C0000032C00000B8
S113007030C00000C3C000002CC000002AC0000033
S113008028C0000026C0000024C0000022C00000D8
S113009020C000001EC0000011241FBECFEFD0E21C
S11300A0DEBFCDBF11E0A0E0B1E0E2E8F9E000E09E
S11300B00BBF02C007900D92A631B107D9F721E01A
S11300C0A6E1B1E001C01D92A236B207E1F7F4D275
S11300D056C4DEC088E090E031D3FC01178216825A
S11300E0108212821182138214821582089584E090
S11300F090E024D3FC0111821082138212820895AD
S1130100FC01A281B381109739F017967C936E930A
S11301101697738362830895718360837383628304
S11301200895DC01ED91FC911197309739F08681A7
S1130130978111969C938E93892B21F413961C928C
S11301401E921297CF0108951F920F920FB60F922D
S113015011240F900FBE0F901F9018951F920F92AD
S11301600FB60F9211240F900FBE0F901F90189589
S11301701F920F920FB60F9211248F9381E08093F8
S11301805C018F910F900FBE0F901F9018951F92D6
S11301900F920FB60F9211248F9381E080935D012B
S11301A08F910F900FBE0F901F9018951F920F9272
S11301B00FB60F9211248F9381E08093590180919F
S11301C02F01882319F010922F0103C081E080933E
S11301D02F018F910F900FBE0F901F9018951F92B3
S11301E00F920FB60F9211248F9381E080932A010E
S11301F08F910F900FBE0F901F9018951F920F9222
S11302000FB60F9211240BB60F922F933F938F9337
S11302109F93EF93FF9380912F01882361F1809145
S1130220790090E090932701809326018091260124
S11302309091270120917800982F8827822B909302
S11302402701809326012091260130912701809176
S11302505A0190915B012817390740F480912601D7
S11302609091270190935B0180935A01EAE7F0E0B3
S1130270808180648083FF91EF919F918F913F9162
S11302802F910F900BBE0F900FBE0F901F901895DB
S11302901F920F920FB60F9211240F900FBE0F9062
S11302A01F9018958AE9809369008DB38F608DBB88
S11302B0089584B5836884BD85B5826085BD80E872
S11302C087BD089584E085B980E787BD08958FEFE1
S11302D093E0909327018093260190935B01809390
S11302E05A0110922F0110923001ECE7F0E0808166
S11302F080648083EAE7F0E080818260808380818B
S1130300816080838081886080838081806880832D
S113031008958FEF81B985E382B981E090E09093ED
S113032029018093280110925401109253010895D9
S1130330AC01E1E8F0E09081916090839081986055
S1130340908388EE93E090938900809388001092C4
S1130350850010928400B19A20E030E005C0B19B82
S1130360FECFB19A2F5F3F4F241735071CF4B19B82
S1130370F6CFF7CF0895CF92DF92EF92FF920F93CB
S11303801F93CF93DF93181619060CF061C06B010D
S11303908C01C0E0D0E00F2EFAE0EF2EF12CF02D0E
S11303A081E0C816D104D1F4E0911601F09117014F
S11303B0E65FFE4F808182B980911601909117010A
S11303C0019683709078992324F401978C6F9F6F22
S11303D0019690931701809316011DC08FEFC816E4
S11303E0D806C9F4E0911601F0911701EA5FFE4FB7
S11303F0808182B9809116019091170101968370D2
S11304009078992324F401978C6F9F6F01969093B1
S1130410170180931601C7018BDFC430D1053CF46A
S113042086E0E816F1041CF081E0E81AF108C8013E
S11304308C1B9D0B05973CF48BE0E816F1041CF42F
S11304408FEFE81AF80A21960C171D0709F0A8CFB8
S1130450DF91CF911F910F91FF90EF90DF90CF909C
S11304600895CF93DF93C82FD0E080912801909115
S113047029019E01281B390B2130310521F02D3F24
S11304808FEF380731F461E070E082E390E073DFCE
S113049018C02F3F8FEF380719F02330310531F49E
S11304A06FEF7FEF82E390E066DF0BC0223031050F
S11304B019F02E3F3F4F29F461E070E084E690E0AC
S11304C05ADFD0932901C0932801DF91CF91089579
S11304D080E188B910925C01809122018F5F809342
S11304E02201F8DD20912201FC01258321E02483EF
S11304F0BC01809157019091580102CE0895109249
S11305005D01E0915701F09158010280F381E02DE3
S113051081E08083459A089510925901469A80910A
S11305202F01882331F0EAE7F0E080818064808342
S1130530089580912E018230A1F480915701909109
S11305405801EFDD20915A0130915B01FC013283A7
S1130550218322E02483BC018091310190913201F6
S1130560CFDD8FEF93E090935B0180935A0181E09C
S1130570809330010895CF93DF93109230018091DE
S1130580310190913201CDDDEC0189819A8128817C
S113059021112CC0EEE0F1E04081518122813381B0
S11305A0481B590BBA0122F466277727641B750B85
S11305B0A901481B590B9A0122F422273327241B33
S11305C0350B6217730748F4E8E1F1E0808191810B
S11305D001969183808380E038C0E8E1F1E0848172
S11305E0958101969583848382E02FC0213061F543
S11305F0EEE0F1E04481558126813781481B590B97
S1130600BA0122F466277727641B750BA901481BDE
S1130610590B9A0122F422273327241B350B621726
S1130620730748F4E8E1F1E08681978101969783A6
S1130630868383E00AC0E8E1F1E082819381019638
S11306409383828381E001C080E08B8383E08C8389
S1130650E8E1F1E080859185019691878087BE016C
S113066080915501909156014BDD98B18B81892B76
S113067088B98B81843010F08FEF88B9DF91CF91E6
S1130680089510922A01479A15B8809155019091C6
S1130690560147DDBC0180912B0190912C0130DD86
S11306A0E0912B01F0912C010280F381E02D8381F4
S11306B08F5FD7DE07CE089511B88FE884B98FEF26
S11306C087B980EF8AB91DB810BA18B8F894FFDD5D
S11306D0F0DDF8DDE7DD1DDE789409DD9093580147
S11306E08093570104DD9093320180933101FFDC44
S11306F09093560180935501FADC90932C018093DA
S11307002B0182E080932E0110922D011092220180
S113071080915C018111DCDE80915D018111EFDE4D
S1130720809159018111F8DE80913001811123DF1C
S113073080912A01882361F3A4DFEACF0F931F93EA
S1130740CF93DF938230910510F482E090E0E09142
S11307506001F091610120E030E0A0E0B0E030976A
S113076019F1408151810281138148175907C8F05A
S11307708417950769F4109731F012960C93129729
S113078013961C9327C0009360011093610122C04B
S11307902115310519F04217530718F49A01BD01C8
S11307A0EF01DF01F801DBCF21153105F9F0281B3A
S11307B0390B2430310580F48A819B8161157105E0
S11307C021F0FB019383828304C0909361018093A1
S11307D06001FE01329644C0FE01E20FF31F8193D3
S11307E0919322503109398328833AC020915E01C4
S11307F030915F01232B41F42091020130910301D8
S113080030935F0120935E0120910001309101013A
S11308102115310541F42DB73EB7409104015091A3
S11308200501241B350BE0915E01F0915F01E21795
S1130830F307A0F42E1B3F0B2817390778F0AC01FF
S11308404E5F5F4F2417350748F04E0F5F1F5093DC
S11308505F0140935E018193919302C0E0E0F0E078
S1130860CF01DF91CF911F910F910895CF93DF9323
S1130870009709F481C0FC01329713821282A0917F
S11308806001B0916101109781F420813181820F60
S1130890931F20915E0130915F012817390751F5AC
S11308A0F0935F01E0935E0167C0ED0120E030E06A
S11308B0CE17DF0740F44A815B819E014115510543
S11308C0F1F0EA01F5CFD383C28340815181840FD3
S11308D0951FC817D90759F488819981840F951FEA
S11308E00296918380838A819B81938382832115DD
S11308F0310529F4F0936101E09360013DC0E90101
S1130900FB83EA8349915991C40FD51FEC17FD0766
S113091061F480819181840F951F0296E901998386
S11309208883828193819B838A83E0E0F0E012963E
S11309308D919C911397009719F0FD01DC01F7CF7D
S11309408D919C9111979D012E5F3F4F820F931FB4
S113095020915E0130915F012817390769F43097BF
S113096029F4109261011092600102C01382128274
S1130970B0935F01A0935E01DF91CF910895F89445
S1050980FFCFA3
S11309820000620120002D2E363535362E2DD00280
S1090992EE027C0162028A
S9030000FC
