S0150000536F7274696E6753797374656D2E73726563A4
S11300004BC0000071C0000079C0000081C0000036
S1130010A5C000005EC000005CC000005AC0000023
S113002058C0000056C0000054C0000052C0000078
S113003050C000004EC000004CC000004AC0000088
S113004048C0000046C0000044C0000042C0000098
S113005040C000003FC000003CC000003AC00000A7
S113006038C0000036C0000034C0000032C00000B8
S113007030C000007DC000002CC000002AC0000079
S113008028C0000026C0000024C0000022C00000D8
S113009020C000001EC0000011241FBECFEFD0E21C
S11300A0DEBFCDBF11E0A0E0B1E0E8ECF4E000E099
S11300B00BBF02C007900D92A030B107D9F721E021
S11300C0A0E0B1E001C01D92AE32B207E1F7D9D190
S11300D0F9C191C01F920F920FB60F9211240F9085
S11300E00FBE0F901F9018951F920F920FB60F928C
S11300F011240F900FBE0F901F9018951F920F920E
S11301000FB60F9211240F900FBE0F901F901895E9
S11301101F920F920FB60F9211240BB60F928F936A
S1130120EF93FF9380910501882331F0109205012C
S113013081E08093060108C081E080930501EAE72D
S1130140F0E0808180648083FF91EF918F910F9024
S11301500BBE0F900FBE0F901F9018951F920F9219
S11301600FB60F9211240F900FBE0F901F90189589
S11301701F920F920FB60F9211240BB60F922F936A
S11301803F938F939F93EF93FF938091050188236F
S113019029F1209178008091790090E0982F8827A8
S11301A0820F911D90930101809300012091000121
S11301B0309101018091290190912A012817390772
S11301C040F4809100019091010190932A01809361
S11301D02901EAE7F0E0808180648083FF91EF9158
S11301E09F918F913F912F910F900BBE0F900FBE57
S11301F00F901F9018951F920F920FB60F92112413
S11302000F900FBE0F901F9018958AE98093690094
S11302108DB38F608DBB089584B5836884BD85B527
S1130220826085BD80E887BD089584E085B980EE4D
S113023087BD08958FEF9FE09093010180930001A3
S113024090932A01809329011092050110920601CE
S1130250ECE7F0E0808180648083EAE7F0E080816D
S113026082608083808181608083808188608083D4
S11302708081806880830895AC01E1E8F0E090819A
S11302809160908390819860908388EE93E090933E
S11302908900809388001092850010928400EFE614
S11302A0F0E0908192609083B19A20E030E005C044
S11302B0B19BFECFB19A2F5F3F4F241735071CF433
S11302C0B19BF6CFF7CF08952BB12F702BB99C01BA
S11302D0337028B92BB1AC01442751705295429523
S11302E04F7045275F7045278827927096958795AC
S11302F096958795840F822B8BB908952F923F9200
S11303004F925F926F927F928F929F92AF92BF9221
S1130310CF92DF92EF92FF920F931F93CF93DF93CD
S1130320CDB7DEB764970FB6F894DEBF0FBECDBF6E
S1130330812C912CCC24CA94DC2C22242A945E0196
S113034085E1A80EB11C332433947EC0809106014C
S11303508823E1F398B92091290130912A0121934E
S11303603193D0922A01C0922901109206019F5F15
S11303709B3061F728B817BC84E690E07DDF0981E3
S11303801A81FE0133969801780181919191E816C2
S1130390F90608F47C018017910708F48C01280FF2
S11303A0391FEA15FB0589F72701400E511E5694A3
S11303B04794ADECBCEC77D03C017694679476948A
S11303C0679476946794F401EE0FFF1FEE0FFF1FFE
S11303D0EE0FFF1FE95FFE4F11830083F382E28279
S11303E0558244827782668238B884E690E044DF9E
S11303F0C8016ADF88EE93E03FDF82E088B984E6D3
S113040090E03ADFC70160DF88EE93E035DF83E0F8
S113041088B984E690E030DFC20156DF88EE93E0CD
S11304202BDF84E088B984E690E026DFC3014CDF4B
S113043088EE93E021DF80EE87BD8FEF881A980A5B
S113044084E08816910421F0FE01319691E07ECF7C
S113045064960FB6F894DEBF0FBECDBFDF91CF9187
S11304601F910F91FF90EF90DF90CF90BF90AF90CE
S11304709F908F907F906F905F904F903F902F90C0
S1130480089511B88FE884B98FEF87B980EF8AB9DE
S11304901DB810BA18B8F894CDDEBEDEC6DEB5DEDF
S11304A078942CDFFFCFA29FB001B39FC001A39F1C
S11304B0700D811D1124911DB29F700D811D112499
S10B04C0911D0895F894FFCF8B
S9030000FC
