:100000004BC00000BEC0000064C000009CC20000E5
:10001000C9C000005EC000005CC000005AC0000003
:1000200058C0000056C0000054C0000052C000007C
:1000300050C000004EC000004CC000004AC000008C
:1000400048C0000094C0000044C0000042C000004E
:1000500040C0000082C000003CC000003AC0000068
:1000600038C0000036C0000034C0000032C00000BC
:1000700030C00000A7C000002CC000002AC0000053
:1000800028C0000026C0000024C0000022C00000DC
:1000900020C000001EC0000011241FBECFEFD0E220
:1000A000DEBFCDBF11E0A0E0B1E0E6E9F8E000E09E
:1000B0000BBF02C007900D92AE30B107D9F721E017
:1000C000AEE0B1E001C01D92A134B207E1F774D2F5
:1000D000E0C3C2C084E090E0BBD2FC011182108278
:1000E000138212820895FC01A281B381109739F026
:1000F00017967C936E93169773836283089571832A
:100100006083738362830895DC01ED91FC91119704
:10011000309739F08681978111969C938E93892B25
:1001200021F413961C921E921297CF010895CF933B
:10013000DF93EC0188819981009751F0FC012681C1
:100140003781398328831CD3888199810097B1F73F
:100150001B821A82DF91CF9108951F920F920FB6E2
:100160000F9211240F900FBE0F901F9018951F92A1
:100170000F920FB60F9211240F900FBE0F901F9089
:1001800018951F920F920FB60F9211248F9380E152
:1001900088B981E0809310018F910F900FBE0F906E
:1001A0001F9018951F920F920FB60F9211248F93E4
:1001B000479A81E080930E018F910F900FBE0F90B0
:1001C0001F9018951F920F920FB60F9211240BB625
:1001D0000F922F933F938F939F93EF93FF93809171
:1001E0001401882361F18091790090E090930C01D3
:1001F00080930B0180910B0190910C01209178006C
:10020000982F8827822B90930C0180930B012091CB
:100210000B0130910C018091090190910A0128177E
:10022000390740F480910B0190910C0190930A01E1
:1002300080930901EAE7F0E0808180648083FF9188
:10024000EF919F918F913F912F910F900BBE0F9047
:100250000FBE0F901F9018951F920F920FB60F921E
:1002600011240F900FBE0F901F90189582E9809374
:1002700069008DB38D638DBB089584B5836884BD9B
:1002800085B5826085BD80E887BD089584E085B925
:1002900080E387BD0895ECE7F0E08081806480838F
:1002A000EAE7F0E0808182608083808181608083E2
:1002B00080818860808380818068808308958FEF4B
:1002C00081B985E382B981E090E090930801809341
:1002D000070110921301109212010895AC01E1E898
:1002E000F0E090819160908390819860908388EE97
:1002F00093E090938900809388001092850010927B
:100300008400B19A20E030E005C0B19BFECFB19AE5
:100310002F5F3F4F241735071CF4B19BF6CFF7CF63
:1003200008952BB12F702BB99C01337028B92BB1D4
:10033000AC0144275170529542954F7045275F702C
:100340004527882792709695879596958795840F6F
:10035000822B8BB908952F923F924F925F926F92AA
:100360007F928F929F92AF92BF92CF92DF92EF9245
:10037000FF920F931F93CF93DF93CDB7DEB76497B0
:100380000FB6F894DEBF0FBECDBF812C912C0F2E7F
:10039000CC24CA94F3E0DF2EF02D22242A945E01AF
:1003A00045E1A40EB11C6894332432F881C08091D9
:1003B00011018823E1F398B92091090130910A01D4
:1003C00021933193D0920A01C09209011092110138
:1003D0009F5F9B3061F728B815B884E690E07EDF18
:1003E00009811A81FE0133969801780181919191DA
:1003F000E816F90628F48F3F43E0940709F07C01E2
:100400008017910708F48C01280F391FEA15FB05A6
:1004100069F72701400E511E56944794ADECBCEC91
:1004200008D13C01769467947694679476946794A7
:10043000F401EE0FFF1FEE0FFF1FEE0FFF1FE75E31
:10044000FE4F11830083F382E282558244827782D9
:10045000668281E088B988EE93E040DFC80161DF01
:1004600088E59BE13BDF42E048B988EE93E036DF68
:10047000C70157DF88E59BE131DF83E088B988EE6B
:1004800093E02CDFC2014DDF88E59BE127DF38B820
:1004900088EE93E023DFC30144DF88E59BE11EDFA4
:1004A00035B84FEF841A940A84E08816910421F03D
:1004B000FE01319691E07BCF64960FB6F894DEBFD3
:1004C0000FBECDBFDF91CF911F910F91FF90EF90A5
:1004D000DF90CF90BF90AF909F908F907F906F9064
:1004E0005F904F903F902F90089510920F01809150
:1004F0001401882331F0EAE7F0E080818064808392
:100500000895809106018230D1F480913B01909151
:100510003C01FADD2091090130910A01FC0132838E
:10052000218322E02483BC0180911701909118015E
:10053000DADD8FEF93E090930A018093090181E067
:100540008093110108951F920F920FB60F921124FC
:100550000BB60F922F933F934F935F936F937F93BD
:100560008F939F93AF93BF93EF93FF93469A81E04E
:1005700080930F0180911401882319F010921401C7
:1005800003C081E08093140180910601813009F459
:10059000ACDFFF91EF91BF91AF919F918F917F91D0
:1005A0006F915F914F913F912F910F900BBE0F90E4
:1005B0000FBE0F901F90189511B88FE884B98FEF78
:1005C00087B980EF8AB91DB810BA18B8F89463DEFD
:1005D00054DE5CDE4BDE73DE7DDD90933C01809368
:1005E0003B0178DD909318018093170173DD9093A0
:1005F0003A01809339016EDD9093160180931501C5
:100600007894A9DE80913B0190913C0190DD80912E
:100610001701909118018BDD8091390190913A0179
:1006200086DD809115019091160181DD80E090E0DA
:100630000895A29FB001B39FC001A39F700D811DBB
:100640001124911DB29F700D811D1124911D0895DB
:100650000F931F93CF93DF938230910510F482E0C4
:1006600090E0E0913F01F091400120E030E0A0E017
:10067000B0E0309719F14081518102811381481710
:100680005907C8F08417950769F4109731F012964E
:100690000C93129713961C9327C000933F0110935D
:1006A000400122C02115310519F04217530718F4F3
:1006B0009A01BD01EF01DF01F801DBCF2115310502
:1006C000F9F0281B390B2430310580F48A819B8195
:1006D0006115710521F0FB019383828304C090931F
:1006E000400180933F01FE01329644C0FE01E20FBB
:1006F000F31F8193919322503109398328833AC0A3
:1007000020913D0130913E01232B41F420910201C3
:100710003091030130933E0120933D01209100016F
:10072000309101012115310541F42DB73EB74091BB
:10073000040150910501241B350BE0913D01F0911E
:100740003E01E217F307A0F42E1B3F0B28173907D1
:1007500078F0AC014E5F5F4F2417350748F04E0F1D
:100760005F1F50933E0140933D018193919302C0DE
:10077000E0E0F0E0CF01DF91CF911F910F9108955C
:10078000CF93DF93009709F481C0FC013297138265
:100790001282A0913F01B0914001109781F4208115
:1007A0003181820F931F20913D0130913E01281726
:1007B000390751F5F0933E01E0933D0167C0ED012B
:1007C00020E030E0CE17DF0740F44A815B819E01D4
:1007D00041155105F1F0EA01F5CFD383C283408181
:1007E0005181840F951FC817D90759F488819981C1
:1007F000840F951F0296918380838A819B819383C6
:1008000082832115310529F4F0934001E0933F01E3
:100810003DC0E901FB83EA8349915991C40FD51F7B
:10082000EC17FD0761F480819181840F951F02967A
:10083000E90199838883828193819B838A83E0E0A5
:10084000F0E012968D919C911397009719F0FD019D
:10085000DC01F7CF8D919C9111979D012E5F3F4F49
:10086000820F931F20913D0130913E0128173907D7
:1008700069F4309729F41092400110923F0102C0B0
:1008800013821282B0933E01A0933D01DF91CF917C
:060890000895F894FFCF6B
:0E089600000041012000010100FF03FF0300EC
:00000001FF
