:100000004BC00000F2C00000FFC000000CC10000A7
:1000100023C1000030C1000051C100005AC00000DF
:1000200058C0000056C0000054C0000052C000007C
:1000300050C000004EC000004CC000004AC000008C
:1000400048C0000046C0000044C0000042C000009C
:1000500040C00000AAC000003CC000003AC0000040
:1000600038C0000036C0000034C0000032C00000BC
:1000700030C0000034C100002CC000002AC00000C5
:100080009EC0000026C0000024C0000022C0000066
:1000900020C000001EC0000011241FBECFEFD0E220
:1000A000DEBFCDBF11E0A0E0B1E0E4E2FCE000E0A3
:1000B0000BBF02C007900D92AA31B107D9F721E01A
:1000C000AAE1B1E001C01D92A836B207E1F7A8D3BA
:1000D000A7C54FC188E090E082D4FC011782168248
:1000E000108212821182138214821582089584E094
:1000F00090E075D4FC01118210821382128208955F
:10010000FC01A281B381109739F017967C936E930E
:100110001697738362830895718360837383628308
:100120000895DC01ED91FC911197309739F08681AB
:10013000978111969C938E93892B21F413961C9290
:100140001E921297CF010895CF93DF93EC0188811F
:100150009981009751F0FC012681378139832883EA
:10016000D6D4888199810097B1F71B821A82DF91DA
:10017000CF910895FC0181E090E020813181232B13
:1001800011F080E090E00895DC01ED91FC91309752
:1001900049F080E090E001960680F781E02D3097ED
:1001A000D1F7089580E090E008951F920F920FB666
:1001B0000F9211240F900FBE0F901F9018951F9251
:1001C0000F920FB60F9211248F9381E08093270135
:1001D00080912901882319F084E0809308018F9190
:1001E0000F900FBE0F901F9018951F920F920FB691
:1001F0000F9211248F9381E080932F018F910F90A4
:100200000FBE0F901F9018951F920F920FB60F926E
:1002100011248F9381E080932C018F910F900FBE5A
:100220000F901F9018951F920F920FB60F921124E6
:100230008F9381E080932E0180913901882319F0FA
:100240001092390103C081E0809339018F910F90A2
:100250000FBE0F901F9018951F920F920FB60F921E
:1002600011248F9381E080932D018F910F900FBE09
:100270000F901F9018951F920F920FB60F92112496
:100280008F9380910801823039F481E080932B01B3
:1002900083E0809308010CC080910801833041F411
:1002A00081E08093280182E08093080110921C0174
:1002B0008F910F900FBE0F901F9018951F920F9265
:1002C0000FB60F9211248F9381E080932A018093BF
:1002D00029018F910F900FBE0F901F9018951F92BC
:1002E0000F920FB60F9211240BB60F922F933F93DC
:1002F0008F939F93EF93FF9380913901882361F14E
:100300008091790090E09093340180933301809143
:1003100033019091340120917800982F8827822B07
:100320009093340180933301209133013091340153
:1003300080916201909163012817390740F4809100
:100340003301909134019093630180936201EAE755
:10035000F0E0808180648083FF91EF919F918F9185
:100360003F912F910F900BBE0F900FBE0F901F90DB
:1003700018951F920F920FB60F9211240F900FBE77
:100380000F901F9018958AE9809369008AE0809306
:100390006A008DB38F638DBB089584B5836884BD77
:1003A00085B5826085BD80E887BD0895E1E9F0E00C
:1003B00080818B608083E1E7F0E0808182608083D0
:1003C000C19A80818D7F808308959C01E1E7F0E0F0
:1003D00090819260908310929500109294003093D7
:1003E000990020939800089584E085B980E587BD41
:1003F00008958FEF93E090933401809333019093AD
:100400006301809362011092390110923201ECE78E
:10041000F0E0808180648083EAE7F0E080818260A0
:1004200080838081816080838081886080838081F7
:100430008068808308958FEF81B985E382B981E078
:1004400090E0909336018093350110925D011092F7
:100450005C010895AC01E1E8F0E090819160908347
:1004600090819860908388EE93E0909389008093C8
:1004700088001092850010928400B19A20E030E04C
:1004800005C0B19BFECFB19A2F5F3F4F24173507B0
:100490001CF4B19BF6CFF7CF0895CF92DF92EF9285
:1004A000FF920F931F93CF93DF93181619060CF04A
:1004B00061C06B018C01C0E0D0E00F2EFAE0EF2E9E
:1004C000F12CF02D81E0C816D104D1F4E0911A018D
:1004D000F0911B01E35FFE4F808182B980911A0188
:1004E00090911B01019683709078992324F40197D1
:1004F0008C6F9F6F019690931B0180931A011DC012
:100500008FEFC816D806C9F4E0911A01F0911B01CB
:10051000E75FFE4F808182B980911A0190911B01A3
:10052000019683709078992324F401978C6F9F6FC4
:10053000019690931B0180931A01C7018BDFC43091
:10054000D1053CF486E0E816F1041CF081E0E81ADD
:10055000F108C8018C1B9D0B05973CF48BE0E81655
:10056000F1041CF48FEFE81AF80A21960C171D0706
:1005700009F0A8CFDF91CF911F910F91FF90EF90DD
:10058000DF90CF900895CF93DF93C82FD0E0809174
:100590003501909136019E01281B390B2130310520
:1005A00021F02D3F8FEF380731F461E070E082E3F6
:1005B00090E073DF18C02F3F8FEF380719F023301A
:1005C000310531F46FEF7FEF82E390E066DF0BC01F
:1005D0002230310519F02E3F3F4F29F461E070E0E1
:1005E00084E690E05ADFD0933601C0933501DF9165
:1005F000CF91089510922F01809130018F5F8093E9
:10060000300168DD20913001FC01258321E0248345
:10061000BC01809160019091610172DD8091600167
:1006200090916101B1DD88B9479A089510922C012B
:10063000E0916001F09161010280F381E02D81E0A1
:100640008083089510922E0180913901882331F022
:10065000EAE7F0E08081806480830895809108015A
:100660008230A1F480916001909161015ADD209166
:10067000620130916301FC013283218322E02483F3
:10068000BC0180913A0190913B013ADD8FEF93E0FC
:10069000909363018093620181E0809332018091A5
:1006A0003A0190913B0170DD88B9469A0895109205
:1006B000320180913A0190913B0133DDFC0181814F
:1006C00092812081211134C0A1E1B1E04D915C9172
:1006D000119712962D913C911397481B590BBA0113
:1006E00022F466277727641B750BA901481B590B59
:1006F0009A0122F422273327241B350B6217730734
:1007000050F4ADE1B1E08D919C91119701968D93DC
:100710009C9380E048C0ADE1B1E014968D919C912E
:100720001597019615969C938E93149782E03BC083
:100730002130C1F5A1E1B1E014964D915C9115977E
:1007400016962D913C911797481B590BBA0122F42C
:1007500066277727641B750BA901481B590B9A0163
:1007600022F422273327241B350B6217730768F402
:10077000ADE1B1E016968D919C9117970196179671
:100780009C938E93169783E00EC0ADE1B1E0129674
:100790008D919C911397019613969C938E9312972B
:1007A00081E001C080E0838383E08483ADE1B1E038
:1007B00018968D919C911997019619969C938E93FA
:1007C0001897BF0180915E0190915F0199DC809143
:1007D0005E0190915F01D8DC88B9459A0895109226
:1007E0002D0115B880915E0190915F019ADCBC01EA
:1007F000809137019091380183DCE0913701F091CD
:1008000038010280F381E02D83818F5FBCDEECDD57
:100810008091370190913801B7DC88B9449A0895E6
:1008200011B88FE884B98FEF87B980EF8AB91DB806
:1008300010BA18B8F894DDDDB0DDB8DDD5DDA3DD84
:10084000FADD789454DC90936101809360014FDC71
:1008500090933B0180933A014ADC90935F0180932F
:100860005E0145DC909338018093370182E08093EC
:1008700008011092310110923001C1E7D0E001E08F
:1008800010E06894EE24E1F86894FF24F2F8809177
:100890002A01882369F010922A018091080183308F
:1008A00011F4E092080180910601909107018DDD1D
:1008B0008091080180912801882321F0F5B8888172
:1008C0008D7F888380912F01811194DE80912C018E
:1008D0008111ACDE80912E018111B4DE8091320154
:1008E0008111E5DE80912D01811179DF8091080170
:1008F000833099F580912B01882341F010922B01D0
:1009000015B880910601909107015FDD8091270164
:10091000882319F110922701E0911C0180911C019C
:10092000980102C0220F331F8A95E2F7F0E0EE0F24
:10093000FF1FE35EFE4F808190E1299F800D11240F
:1009400088B980911C01833019F410921C0105C0F4
:1009500080911C018F5F80931C018091080184307D
:1009600009F095CF80912701882329F01092270163
:1009700088818D7F88838091600190916101FADB8D
:10098000892B09F484CF80913A0190913B01F2DBED
:10099000892B09F47CCF80915E0190915F01EADBA5
:1009A000892B09F474CF15B8EAE7F0E080818F77DE
:1009B0008083F8948091600190916101C5DB809102
:1009C0003A0190913B01C0DB80915E0190915F0103
:1009D000BBDB8091370190913801B6DB55CF0F9387
:1009E0001F93CF93DF938230910510F482E090E063
:1009F000E0916601F091670120E030E0A0E0B0E016
:100A0000309719F1408151810281138148175907AC
:100A1000C8F08417950769F4109731F012960C937B
:100A2000129713961C9327C00093660110936701D9
:100A300022C02115310519F04217530718F49A0105
:100A4000BD01EF01DF01F801DBCF21153105F9F020
:100A5000281B390B2430310580F48A819B81611574
:100A6000710521F0FB019383828304C09093670199
:100A700080936601FE01329644C0FE01E20FF31F2F
:100A80008193919322503109398328833AC0209170
:100A9000640130916501232B41F4209102013091D2
:100AA000030130936501209364012091000130918E
:100AB00001012115310541F42DB73EB740910401E4
:100AC00050910501241B350BE0916401F091650103
:100AD000E217F307A0F42E1B3F0B2817390778F015
:100AE000AC014E5F5F4F2417350748F04E0F5F1F74
:100AF00050936501409364018193919302C0E0E0BB
:100B0000F0E0CF01DF91CF911F910F910895CF9326
:100B1000DF93009709F481C0FC013297138212829F
:100B2000A0916601B0916701109781F42081318115
:100B3000820F931F209164013091650128173907B6
:100B400051F5F0936501E093640167C0ED0120E089
:100B500030E0CE17DF0740F44A815B819E014115EA
:100B60005105F1F0EA01F5CFD383C2834081518171
:100B7000840F951FC817D90759F488819981840F6C
:100B8000951F0296918380838A819B8193838283C0
:100B90002115310529F4F0936701E09366013DC00A
:100BA000E901FB83EA8349915991C40FD51FEC17E2
:100BB000FD0761F480819181840F951F0296E90100
:100BC00099838883828193819B838A83E0E0F0E02C
:100BD00012968D919C911397009719F0FD01DC01FD
:100BE000F7CF8D919C9111979D012E5F3F4F820F02
:100BF000931F20916401309165012817390769F42A
:100C0000309729F4109267011092660102C0138296
:100C10001282B0936501A0936401DF91CF91089592
:040C2000F894FFCF76
:100C2400000068012000093D012D2E363535362E91
:0A0C34002DDA02F802EE0258020069
:00000001FF
