S0150000536F7274696E6753797374656D2E73726563A4
S11300004BC00000F3C0000000C100005AC3000050
S11300100BC1000018C1000038C100005AC0000024
S113002058C0000056C0000054C0000052C0000078
S113003050C000004EC000004CC000004AC0000088
S113004048C0000046C0000044C0000042C0000098
S113005040C00000AAC000003CC000003AC000003C
S113006038C0000036C0000034C0000032C00000B8
S113007030C000001DC100002CC000002AC00000D8
S11300809EC0000026C0000024C0000022C0000062
S113009020C000001EC0000011241FBECFEFD0E21C
S11300A0DEBFCDBF11E0A0E0B1E0E8E0FDE000E09C
S11300B00BBF02C007900D92A831B107D9F721E018
S11300C0A8E1B1E001C01D92A336B207E1F7DFD386
S11300D019C631C188E090E0F4D4FC01178216827D
S11300E0108212821182138214821582089584E090
S11300F090E0E7D4FC0111821082138212820895E9
S1130100FC01A281B381109739F017967C936E930A
S11301101697738362830895718360837383628304
S11301200895DC01ED91FC911197309739F08681A7
S1130130978111969C938E93892B21F413961C928C
S11301401E921297CF010895CF93DF93EC0188811B
S11301509981009751F0FC012681378139832883E6
S113016048D5888199810097B1F71B821A82DF9163
S1130170CF910895FC0181E090E020813181232B0F
S113018011F080E090E00895DC01ED91FC9130974E
S113019049F080E090E001960680F781E02D3097E9
S11301A0D1F7089580E090E008951F920F920FB662
S11301B00F9211240F900FBE0F901F9018951F924D
S11301C00F920FB60F9211248F93429A81E080937D
S11301D0260180912701882319F084E080930D0182
S11301E08F910F900FBE0F901F9018951F920F9232
S11301F00FB60F9211248F9381E080932B018F917E
S11302000F900FBE0F901F9018951F920F920FB66C
S11302100F9211248F9381E0809328018F910F9086
S11302200FBE0F901F9018951F920F920FB60F924A
S113023011248F9381E0809329018F910F900FBE39
S11302400F901F9018951F920F920FB60F921124C2
S11302508F9380910D01823049F481E080932F01C6
S113026010921B0183E080930D0109C080910D0160
S1130270833029F482E080932F0180930D018F91C4
S11302800F900FBE0F901F9018951F920F920FB6EC
S11302900F9211248F9383E080932F0181E0809348
S11302A0270188B98F910F900FBE0F901F9018955A
S11302B01F920F920FB60F9211240BB60F922F9329
S11302C03F938F939F93EF93FF93809136018823FD
S11302D029F1209178008091790090E0982F882767
S11302E0820F911D9093330180933201209132014A
S11302F03091330180915D0190915E012817390797
S113030040F4809132019091330190935E01809387
S11303105D01EAE7F0E0808180648083FF91EF91E2
S11303209F918F913F912F910F900BBE0F900FBE15
S11303300F901F9018951F920F920FB60F921124D1
S11303400F900FBE0F901F9018958AE98093690053
S11303508AE080936A008DB38F638DBB089584B562
S1130360836884BD85B5826085BD80E887BD0895B6
S1130370E1E9F0E080818B608083E1E7F0E0808157
S113038082608083C19A80818D7F808308959C01DF
S1130390E1E7F0E0908192609083109295001092D2
S11303A094003093990020939800089584E085B9CF
S11303B080E687BD08958FEF93E090933301809397
S11303C0320190935E0180935D0110923601109288
S11303D02E01ECE7F0E0808180648083EAE7F0E0BE
S11303E08081826080838081816080838081886055
S11303F0808380818068808308958FEF81B985E34D
S113040082B981E090E090930F0180930E011092E5
S11304103101109230010895AC01E1E8F0E09081DF
S11304209160908390819860908388EE93E090939C
S11304308900809388001092850010928400B19AFC
S113044020E030E005C0B19BFECFB19A2F5F3F4F53
S1130450241735071CF4B19BF6CFF7CF08956F929C
S11304607F928F929F92AF92BF92CF92DF92EF9240
S1130470FF920F931F93CF93DF9399230CF48CC0B7
S11304807B018C01C0E0D0E06894CC24C4F8D12C6A
S11304900F2EFDE26F2EF02D0F2EF6E37F2EF02DA2
S11304A00F2EFEE28F2EF02D0F2EF5E39F2EF02D52
S11304B00F2EF3E0AF2EB12CF02D24E0E216F10460
S11304C091F48091180190911901019683709078AC
S11304D0992324F401978C6F9F6F019690931901CF
S11304E08093180115C088E0E816F10489F480911E
S11304F0180190911901019783709078992324F43D
S113050001978C6F9F6F0196909319018093180146
S113051080911801909119018F3F2FEF920729F4D0
S1130520B0921901A092180119C08130910571F09F
S11305301CF4892B39F015C08230910559F00397CA
S113054081F40CC092B8C60167DF0BC072B8C60153
S113055063DF07C082B8C6015FDF03C062B8C601AB
S11305605BDFCA30D1053CF487E0C816D1041CF027
S113057021E0C21AD108C8018C1B9D0B0B973CF4D7
S113058080E1C816D1041CF42FEFC21AD20A2196B6
S11305900C171D070CF091CFDF91CF911F910F9194
S11305A0FF90EF90DF90CF90BF90AF909F908F908F
S11305B07F906F900895CF93DF93C82FD0E0809100
S11305C00E0190910F019E01281B390B213031053A
S11305D021F02D3F8FEF380731F464E070E082E3BF
S11305E090E03DDF18C02F3F8FEF380719F023301C
S11305F0310531F468E070E082E390E030DF0BC055
S11306002230310519F02E3F3F4F29F464E070E0A9
S113061084E690E024DFD0930F01C0930E01DF91B4
S1130620CF91089510922B0180912C018F5F8093BC
S11306302C0150DD20912C01FC01258321E0248331
S1130640BC0180915B0190915C015ACD0895109298
S11306502801E0915B01F0915C010280F381E02DBF
S113066081E08083089510922A01809136018823C5
S113067031F0EAE7F0E0808180648083089580911E
S11306800D018230D1F480915B0190915C0149DDD0
S113069020915D0130915E01FC013283218322E0CF
S11306A02483BC01809137019091380129DD8FEFBB
S11306B093E090935E0180935D0181E080932E012D
S11306C008951F920F920FB60F9211240BB60F923A
S11306D02F933F934F935F936F937F938F939F9346
S11306E0AF93BF93EF93FF9381E080932A018091AE
S11306F03601882319F01092360103C081E08093FB
S1130700360180910D01813009F4ADDFFF91EF9145
S1130710BF91AF919F918F917F916F915F914F9115
S11307203F912F910F900BBE0F900FBE0F901F9013
S11307301895CF9310922E01809137019091380132
S1130740F0DCFC01818192812081211134C0A0E17F
S1130750B1E04D915C91119714962D913C911597B0
S1130760481B590BBA0122F466277727641B750BC3
S1130770A901481B590B9A0122F422273327241B71
S1130780350B6217730750F4ACE1B1E08D919C9185
S1130790119701968D939C93C0E048C0ACE1B1E001
S11307A014968D919C911597019615969C938E9312
S11307B01497C2E03BC02130C1F5A0E1B1E0169628
S11307C04D915C91179712962D913C911397481B6C
S11307D0590BBA0122F466277727641B750BA9010C
S11307E0481B590B9A0122F422273327241B350B6B
S11307F06217730768F4ACE1B1E016968D919C9191
S11308001797019617969C938E931697C3E00EC084
S1130810ACE1B1E012968D919C91139701961396D9
S11308209C938E931297C1E001C0C0E0C38383E020
S11308308483ACE1B1E018968D919C91199701964F
S113084019969C938E931897BF01809159019091AA
S11308505A0156DCC8B9CF9108951092290115B8F0
S11308608091590190915A015CDCBC018091340162
S11308709091350145DCE0913401F091350102801D
S1130880F381E02D83818F5F96DE90CD089511B8BA
S11308908FE884B98FEF87B980EF8AB91DB810BA91
S11308A018B8F89488DD5BDD63DD80DD4EDDA5DD01
S11308B078941DDC90935C0180935B0118DC909329
S11308C038018093370113DC90935A0180935901C6
S11308D00EDC909335018093340182E080930D0106
S11308E010922D0110922C016894FF24F2F8C1E7B4
S11308F0D0E06894EE24E1F8DD24D3940AE710E014
S113090080912F01833071F4419A10922F018091CC
S11309100D01833011F4E0920D0180910B0190914F
S11309200C0135DD80910D0180912F01823021F47D
S1130930F5B888818D7F888380912B01811172DEC7
S113094080912801811183DE80912A0181118BDE3F
S113095080912E018111EDDE8091290181117DDFCD
S113096080910D018330C1F580912F01813041F4D4
S113097010922F0115B880910B0190910C0107DDA5
S113098080912601882341F11092260180911B0158
S1130990843051F48091590190915A01F5DB8051D2
S11309A088B910921B0118C0E0911B01A0911B0192
S11309B0B0E0AA5FBE4F9C91F0E0EE0FFF1FE45E33
S11309C0FE4F808120E1929F800D112488B980918F
S11309D01B018F5F80931B0180910D01843009F00E
S11309E08FCF439A80912601882349F110922601E2
S11309F080911A01882301F1E0911B01A0911B0150
S1130A00B0E0AA5FBE4F9C91F0E0EE0FFF1FE45EE2
S1130A10FE4F8081E0E19E9F800D112488B9809172
S1130A201B01833019F410921B0109C080911B0132
S1130A308F5F80931B0103C088818D7F88838091A1
S1130A405B0190915C0196DB892B09F459CF80916D
S1130A503701909138018EDB892B09F451CF8091B5
S1130A60590190915A0186DB892B09F449CF809171
S1130A701A01811145CF84E690E0CEDC15B8D092FE
S1130A801A0110921B0180910B0190910C017FDCE3
S1130A90F80180818F77808380915B0190915C0164
S1130AA053DB80913701909138014EDB80915901DD
S1130AB090915A0149DB809134019091350144DBD6
S1130AC01FCF0F931F93CF93DF938230910510F4C0
S1130AD082E090E0E0916101F091620120E030E079
S1130AE0A0E0B0E0309719F1408151810281138177
S1130AF048175907C8F08417950769F4109731F01F
S1130B0012960C93129713961C9327C000936101BD
S1130B101093620122C02115310519F042175307C1
S1130B2018F49A01BD01EF01DF01F801DBCF2115B3
S1130B303105F9F0281B390B2430310580F48A8102
S1130B409B816115710521F0FB019383828304C0AD
S1130B509093620180936101FE01329644C0FE01CC
S1130B60E20FF31F81939193225031093983288333
S1130B703AC020915F0130916001232B41F4209110
S1130B800201309103013093600120935F012091B1
S1130B900001309101012115310541F42DB73EB713
S1130BA04091040150910501241B350BE0915F0134
S1130BB0F0916001E217F307A0F42E1B3F0B2817F6
S1130BC0390778F0AC014E5F5F4F2417350748F0C2
S1130BD04E0F5F1F5093600140935F018193919387
S1130BE002C0E0E0F0E0CF01DF91CF911F910F91BF
S1130BF00895CF93DF93009709F481C0FC013297E5
S1130C0013821282A0916101B0916201109781F464
S1130C1020813181820F931F20915F013091600107
S1130C202817390751F5F0936001E0935F0167C01D
S1130C30ED0120E030E0CE17DF0740F44A815B810C
S1130C409E0141155105F1F0EA01F5CFD383C2832A
S1130C5040815181840F951FC817D90759F48881A1
S1130C609981840F951F0296918380838A819B8149
S1130C70938382832115310529F4F0936201E09373
S1130C8061013DC0E901FB83EA8349915991C40F95
S1130C90D51FEC17FD0761F480819181840F951FA6
S1130CA00296E90199838883828193819B838A8355
S1130CB0E0E0F0E012968D919C911397009719F063
S1130CC0FD01DC01F7CF8D919C9111979D012E5F61
S1130CD03F4F820F931F20915F01309160012817CD
S1130CE0390769F4309729F4109262011092610176
S1130CF002C013821282B0936001A0935F01DF915E
S10B0D00CF910895F894FFCF90
S1130D080000630120000102040800093D010100FC
S10B0D1802036400310314001E
S9030000FC
