S0150000536F7274696E6753797374656D2E73726563A4
S11300004BC00000BDC00000F1C000000DC10000E5
S11300105FC100005EC000005CC000005AC0000068
S113002058C0000056C0000054C0000052C0000078
S113003050C000004EC000004CC000004AC0000088
S113004048C0000046C0000044C0000042C0000098
S113005040C000008BC000003CC000003AC000005B
S113006038C0000036C0000034C0000032C00000B8
S113007030C000005FC100002CC000002AC0000096
S113008028C0000026C0000024C0000022C00000D8
S113009020C000001EC0000011241FBECFEFD0E21C
S11300A0DEBFCDBF11E0A0E0B1E0E4EBF6E000E09C
S11300B00BBF02C007900D92A630B107D9F721E01B
S11300C0A6E0B1E001C01D92AA33B207E1F7B6D1B0
S11300D0EFC273C187E090E0CAD1FC011682158299
S11300E010821282118213821482089584E090E0B7
S11300F0BED1FC0111821082138212820895FC0188
S1130100A281B381109739F016967C936E9315975C
S11301107383628308957183608373836283089514
S1130120DC01ED91FC911197309739F0858196812E
S113013011969C938E93892B21F413961C921E92F4
S11301401297CF0108952BC20895DC01ED91FC9123
S1130150309749F080E090E001960580F681E02D2B
S11301603097D1F7089580E090E008951F920F92A0
S11301700FB60F9211240F900FBE0F901F90189579
S11301801F920F920FB60F9211240BB60F922F935A
S11301903F934F935F936F937F938F939F93AF930B
S11301A0BF93EF93FF9396DF21E0FC012483BC010E
S11301B08091060190910701A2DF80910601909140
S11301C00701C3DF88B9FF91EF91BF91AF919F9170
S11301D08F917F916F915F914F913F912F910F90EC
S11301E00BBE0F900FBE0F901F9018951F920F9289
S11301F00FB60F9211240BB60F928F93EF93FF93C8
S1130200479AE0910601F09107010190F081E02DF9
S113021081E08083FF91EF918F910F900BBE0F903F
S11302200FBE0F901F9018951F920F920FB60F924A
S113023011240BB60F922F933F934F935F936F93B9
S11302407F938F939F93AF93BF93EF93FF9380918B
S11302500D01882311F180910C018230C1F4E091E9
S11302600601F09107010190F081E02D80913101A8
S113027090913201928381838091060190910701CC
S1130280DC01ED91FC9122E024835FDF88B91092B8
S11302900D0181E080930E0108C081E080930D017F
S11302A0EAE7F0E0808180648083FF91EF91BF9161
S11302B0AF919F918F917F916F915F914F913F91FA
S11302C02F910F900BBE0F900FBE0F901F9018959B
S11302D01F920F920FB60F9211240BB60F922F9309
S11302E03F934F935F936F937F938F939F93AF93BA
S11302F0BF93EF93FF93809106019091070110DF64
S113030022DF80910601909107011FDF88B9FF91D8
S1130310EF91BF91AF919F918F917F916F915F9179
S11303204F913F912F910F900BBE0F900FBE0F90E6
S11303301F9018951F920F920FB60F9211240BB6AF
S11303400F922F933F938F939F93EF93FF938091FB
S11303500D01882329F1209178008091790090E0A3
S1130360982F8827820F911D90930901809308018B
S1130370209108013091090180913101909132015D
S11303802817390740F4809108019091090190934E
S1130390320180933101EAE7F0E080818064808358
S11303A0FF91EF919F918F913F912F910F900BBEF1
S11303B00F900FBE0F901F9018951F920F920FB6BB
S11303C00F9211240F900FBE0F901F9018958AE979
S11303D0809369008DB38F608DBB089584B5836865
S11303E084BD85B5826085BD80E887BD089584E0BD
S11303F085B980EE87BD08958FEF93E0909309014E
S113040080930801909332018093310110920D0181
S113041010920E01ECE7F0E0808180648083EAE7CB
S1130420F0E080818260808380818160808380812C
S113043088608083808180688083089511B88FE804
S113044084B98FEF87B980EF8AB91DB810BA18B88C
S1130450F894D2DFC3DFCBDFBADF789447DE909322
S113046007018093060182E080930C01FFCF0F9374
S11304701F93CF93DF938230910510F482E090E0D4
S1130480E0913801F091390120E030E0A0E0B0E0E3
S1130490309719F14081518102811381481759071E
S11304A0C8F08417950769F4109731F012960C93ED
S11304B0129713961C9327C00093380110933901A7
S11304C022C02115310519F04217530718F49A0177
S11304D0BD01EF01DF01F801DBCF21153105F9F092
S11304E0281B390B2430310580F48A819B816115E6
S11304F0710521F0FB019383828304C09093390139
S113050080933801FE01329644C0FE01E20FF31FCE
S11305108193919322503109398328833AC02091E1
S1130520360130913701232B41F42091020130919F
S1130530030130933701209336012091000130915B
S113054001012115310541F42DB73EB74091040155
S113055050910501241B350BE0913601F0913701D0
S1130560E217F307A0F42E1B3F0B2817390778F086
S1130570AC014E5F5F4F2417350748F04E0F5F1FE5
S113058050933701409336018193919302C0E0E088
S1130590F0E0CF01DF91CF911F910F910895CF9398
S11305A0DF93009709F481C0FC0132971382128211
S11305B0A0913801B0913901109781F420813181E3
S11305C0820F931F20913601309137012817390784
S11305D051F5F0933701E093360167C0ED0120E057
S11305E030E0CE17DF0740F44A815B819E0141155C
S11305F05105F1F0EA01F5CFD383C28340815181E3
S1130600840F951FC817D90759F488819981840FDD
S1130610951F0296918380838A819B819383828331
S11306202115310529F4F0933901E09338013DC0D7
S1130630E901FB83EA8349915991C40FD51FEC1753
S1130640FD0761F480819181840F951F0296E90171
S113065099838883828193819B838A83E0E0F0E09D
S113066012968D919C911397009719F0FD01DC016E
S1130670F7CF8D919C9111979D012E5F3F4F820F73
S1130680931F20913601309137012817390769F4F7
S1130690309729F4109239011092380102C0138264
S11306A01282B0933701A0933601DF91CF91089560
S10706B0F894FFCFE8
S10906B400003A012000E1
S9030000FC
